{"project/contracts/BondingCurvePool.sol":{"BondingCurvePool":{"abi":[{"inputs":[{"internalType":"address","name":"token_","type":"address"}],"stateMutability":"nonpayable","type":"constructor"},{"anonymous":false,"inputs":[{"indexed":true,"internalType":"address","name":"buyer","type":"address"},{"indexed":false,"internalType":"uint256","name":"hbarInWei","type":"uint256"},{"indexed":false,"internalType":"uint256","name":"tokensOut","type":"uint256"}],"name":"Bought","type":"event"},{"anonymous":false,"inputs":[{"indexed":true,"internalType":"address","name":"seller","type":"address"},{"indexed":false,"internalType":"uint256","name":"tokensIn","type":"uint256"},{"indexed":false,"internalType":"uint256","name":"hbarOutWei","type":"uint256"}],"name":"Sold","type":"event"},{"inputs":[{"internalType":"address","name":"to","type":"address"}],"name":"buy","outputs":[{"internalType":"uint256","name":"tokensOut","type":"uint256"}],"stateMutability":"payable","type":"function"},{"inputs":[{"internalType":"uint256","name":"hbarInWei","type":"uint256"}],"name":"getPriceForBuy","outputs":[{"internalType":"uint256","name":"tokensOut","type":"uint256"}],"stateMutability":"view","type":"function"},{"inputs":[{"internalType":"uint256","name":"tokensIn","type":"uint256"}],"name":"getPriceForSell","outputs":[{"internalType":"uint256","name":"hbarOutWei","type":"uint256"}],"stateMutability":"view","type":"function"},{"inputs":[],"name":"reserves","outputs":[{"internalType":"uint256","name":"hbarReserves","type":"uint256"},{"internalType":"uint256","name":"tokenReserves","type":"uint256"}],"stateMutability":"view","type":"function"},{"inputs":[{"internalType":"address","name":"from","type":"address"},{"internalType":"uint256","name":"tokensIn","type":"uint256"}],"name":"sell","outputs":[{"internalType":"uint256","name":"hbarOutWei","type":"uint256"}],"stateMutability":"nonpayable","type":"function"},{"inputs":[],"name":"token","outputs":[{"internalType":"address","name":"","type":"address"}],"stateMutability":"view","type":"function"},{"stateMutability":"payable","type":"receive"}],"evm":{"bytecode":{"linkReferences":{},"object":"60e03461008a57601f6106cf38819003918201601f19168301916001600160401b0383118484101761008e5780849260209460405283398101031261008a57516001600160a01b0381169081810361008a576080528060a05260c05260405161062c90816100a38239608051816089015260a0518161028f015260c05181818160f301526102c70152f35b5f80fd5b634e487b7160e01b5f52604160045260245ffdfe6040608081526004908136101561002c575b5050361561001d575f80fd5b610028345f546105c8565b5f55005b5f91823560e01c9081633a3f161a146105105781636c197ff51461022657816375172a8b14610201578163e60da41d146101fc578163f088d547146100bc575063fc0c546a0361001157346100b857816003193601126100b857517f00000000000000000000000000000000000000000000000000000000000000006001600160a01b03168152602090f35b5080fd5b905060203660031901126101cc576100d2610531565b906001600160a01b03808316156101d0579084916100f1341515610547565b7f000000000000000000000000000000000000000000000000000000000000000016803b156101cc5784516340c10f1960e01b81526001600160a01b03909416918401918252346020830152839182908490829060400103925af180156101c0576101ac575b506020916101663482546105c8565b9055610174346001546105c8565b600155805134815234838201527fa9a40dec7a304e5915d11358b968c1e8d365992abf20f82285d1df1b30c8e24c823392a251348152f35b6101b6839161057e565b6100b8575f610157565b505051903d90823e3d90fd5b8280fd5b835162461bcd60e51b815260208184015260066024820152654241445f544f60d01b6044820152606490fd5b610510565b8284346102235780600319360112610223575460015482519182526020820152f35b80fd5b919050346101cc57806003193601126101cc57610241610531565b6001600160a01b0393602480359486841693909284156104e357610266871515610547565b8551976323b872dd60e01b895285858a015230848a01528760448a0152602098898160648186867f0000000000000000000000000000000000000000000000000000000000000000165af19081156104d95783916104a3575b5015610471577f000000000000000000000000000000000000000000000000000000000000000016803b156100b8578651632770a7eb60e21b815230868201908152602081018a90529091839183919082908490829060400103925af1801561046757610458575b5090864710158061044d575b15610417578180808981946103498284546105e9565b8355610357826001546105e9565b6001555af1903d15610411573d9067ffffffffffffffff82116103ff5786519161038a601f8201601f19168b01846105a6565b8252883d92013e5b156103cc5750507fbac9694ac0daa55169abd117086fe32c89401d9a3b15dd1d34e55e0aa4e47a9d8280518581528587820152a251908152f35b835162461bcd60e51b8152918201869052600e908201526d1210905497d4d1539117d190525360921b6044820152606490fd5b634e487b7160e01b8152604185528390fd5b50610392565b855162461bcd60e51b81528085018990526011818501527024a729aaa32324a1a4a2a72a2fa42120a960791b6044820152606490fd5b508682541015610333565b6104619061057e565b5f610327565b87513d84823e3d90fd5b865162461bcd60e51b81528086018a9052600d818601526c1514905394d1915497d1905253609a1b6044820152606490fd5b90508981813d83116104d2575b6104ba81836105a6565b810103126101cc575180151581036101cc575f6102bf565b503d6104b0565b88513d85823e3d90fd5b855162461bcd60e51b8152602081860152600881850152674241445f46524f4d60c01b6044820152606490fd5b3461052d57602036600319011261052d5760206040516004358152f35b5f80fd5b600435906001600160a01b038216820361052d57565b1561054e57565b60405162461bcd60e51b81526020600482015260086024820152671393d7d25394155560c21b6044820152606490fd5b67ffffffffffffffff811161059257604052565b634e487b7160e01b5f52604160045260245ffd5b90601f8019910116810190811067ffffffffffffffff82111761059257604052565b919082018092116105d557565b634e487b7160e01b5f52601160045260245ffd5b919082039182116105d55756fea264697066735822122057d5e29bb6573910080829895532d9b4193f87011b580e9a496bf498a270f0b264736f6c63430008140033","opcodes":"PUSH1 0xE0 CALLVALUE PUSH2 0x8A JUMPI PUSH1 0x1F PUSH2 0x6CF CODESIZE DUP2 SWAP1 SUB SWAP2 DUP3 ADD PUSH1 0x1F NOT AND DUP4 ADD SWAP2 PUSH1 0x1 PUSH1 0x1 PUSH1 0x40 SHL SUB DUP4 GT DUP5 DUP5 LT OR PUSH2 0x8E JUMPI DUP1 DUP5 SWAP3 PUSH1 0x20 SWAP5 PUSH1 0x40 MSTORE DUP4 CODECOPY DUP2 ADD SUB SLT PUSH2 0x8A JUMPI MLOAD PUSH1 0x1 PUSH1 0x1 PUSH1 0xA0 SHL SUB DUP2 AND SWAP1 DUP2 DUP2 SUB PUSH2 0x8A JUMPI PUSH1 0x80 MSTORE DUP1 PUSH1 0xA0 MSTORE PUSH1 0xC0 MSTORE PUSH1 0x40 MLOAD PUSH2 0x62C SWAP1 DUP2 PUSH2 0xA3 DUP3 CODECOPY PUSH1 0x80 MLOAD DUP2 PUSH1 0x89 ADD MSTORE PUSH1 0xA0 MLOAD DUP2 PUSH2 0x28F ADD MSTORE PUSH1 0xC0 MLOAD DUP2 DUP2 DUP2 PUSH1 0xF3 ADD MSTORE PUSH2 0x2C7 ADD MSTORE RETURN JUMPDEST PUSH0 DUP1 REVERT JUMPDEST PUSH4 0x4E487B71 PUSH1 0xE0 SHL PUSH0 MSTORE PUSH1 0x41 PUSH1 0x4 MSTORE PUSH1 0x24 PUSH0 REVERT INVALID PUSH1 0x40 PUSH1 0x80 DUP2 MSTORE PUSH1 0x4 SWAP1 DUP2 CALLDATASIZE LT ISZERO PUSH2 0x2C JUMPI JUMPDEST POP POP CALLDATASIZE ISZERO PUSH2 0x1D JUMPI PUSH0 DUP1 REVERT JUMPDEST PUSH2 0x28 CALLVALUE PUSH0 SLOAD PUSH2 0x5C8 JUMP JUMPDEST PUSH0 SSTORE STOP JUMPDEST PUSH0 SWAP2 DUP3 CALLDATALOAD PUSH1 0xE0 SHR SWAP1 DUP2 PUSH4 0x3A3F161A EQ PUSH2 0x510 JUMPI DUP2 PUSH4 0x6C197FF5 EQ PUSH2 0x226 JUMPI DUP2 PUSH4 0x75172A8B EQ PUSH2 0x201 JUMPI DUP2 PUSH4 0xE60DA41D EQ PUSH2 0x1FC JUMPI DUP2 PUSH4 0xF088D547 EQ PUSH2 0xBC JUMPI POP PUSH4 0xFC0C546A SUB PUSH2 0x11 JUMPI CALLVALUE PUSH2 0xB8 JUMPI DUP2 PUSH1 0x3 NOT CALLDATASIZE ADD SLT PUSH2 0xB8 JUMPI MLOAD PUSH32 0x0 PUSH1 0x1 PUSH1 0x1 PUSH1 0xA0 SHL SUB AND DUP2 MSTORE PUSH1 0x20 SWAP1 RETURN JUMPDEST POP DUP1 REVERT JUMPDEST SWAP1 POP PUSH1 0x20 CALLDATASIZE PUSH1 0x3 NOT ADD SLT PUSH2 0x1CC JUMPI PUSH2 0xD2 PUSH2 0x531 JUMP JUMPDEST SWAP1 PUSH1 0x1 PUSH1 0x1 PUSH1 0xA0 SHL SUB DUP1 DUP4 AND ISZERO PUSH2 0x1D0 JUMPI SWAP1 DUP5 SWAP2 PUSH2 0xF1 CALLVALUE ISZERO ISZERO PUSH2 0x547 JUMP JUMPDEST PUSH32 0x0 AND DUP1 EXTCODESIZE ISZERO PUSH2 0x1CC JUMPI DUP5 MLOAD PUSH4 0x40C10F19 PUSH1 0xE0 SHL DUP2 MSTORE PUSH1 0x1 PUSH1 0x1 PUSH1 0xA0 SHL SUB SWAP1 SWAP5 AND SWAP2 DUP5 ADD SWAP2 DUP3 MSTORE CALLVALUE PUSH1 0x20 DUP4 ADD MSTORE DUP4 SWAP2 DUP3 SWAP1 DUP5 SWAP1 DUP3 SWAP1 PUSH1 0x40 ADD SUB SWAP3 GAS CALL DUP1 ISZERO PUSH2 0x1C0 JUMPI PUSH2 0x1AC JUMPI JUMPDEST POP PUSH1 0x20 SWAP2 PUSH2 0x166 CALLVALUE DUP3 SLOAD PUSH2 0x5C8 JUMP JUMPDEST SWAP1 SSTORE PUSH2 0x174 CALLVALUE PUSH1 0x1 SLOAD PUSH2 0x5C8 JUMP JUMPDEST PUSH1 0x1 SSTORE DUP1 MLOAD CALLVALUE DUP2 MSTORE CALLVALUE DUP4 DUP3 ADD MSTORE PUSH32 0xA9A40DEC7A304E5915D11358B968C1E8D365992ABF20F82285D1DF1B30C8E24C DUP3 CALLER SWAP3 LOG2 MLOAD CALLVALUE DUP2 MSTORE RETURN JUMPDEST PUSH2 0x1B6 DUP4 SWAP2 PUSH2 0x57E JUMP JUMPDEST PUSH2 0xB8 JUMPI PUSH0 PUSH2 0x157 JUMP JUMPDEST POP POP MLOAD SWAP1 RETURNDATASIZE SWAP1 DUP3 RETURNDATACOPY RETURNDATASIZE SWAP1 REVERT JUMPDEST DUP3 DUP1 REVERT JUMPDEST DUP4 MLOAD PUSH3 0x461BCD PUSH1 0xE5 SHL DUP2 MSTORE PUSH1 0x20 DUP2 DUP5 ADD MSTORE PUSH1 0x6 PUSH1 0x24 DUP3 ADD MSTORE PUSH6 0x4241445F544F PUSH1 0xD0 SHL PUSH1 0x44 DUP3 ADD MSTORE PUSH1 0x64 SWAP1 REVERT JUMPDEST PUSH2 0x510 JUMP JUMPDEST DUP3 DUP5 CALLVALUE PUSH2 0x223 JUMPI DUP1 PUSH1 0x3 NOT CALLDATASIZE ADD SLT PUSH2 0x223 JUMPI SLOAD PUSH1 0x1 SLOAD DUP3 MLOAD SWAP2 DUP3 MSTORE PUSH1 0x20 DUP3 ADD MSTORE RETURN JUMPDEST DUP1 REVERT JUMPDEST SWAP2 SWAP1 POP CALLVALUE PUSH2 0x1CC JUMPI DUP1 PUSH1 0x3 NOT CALLDATASIZE ADD SLT PUSH2 0x1CC JUMPI PUSH2 0x241 PUSH2 0x531 JUMP JUMPDEST PUSH1 0x1 PUSH1 0x1 PUSH1 0xA0 SHL SUB SWAP4 PUSH1 0x24 DUP1 CALLDATALOAD SWAP5 DUP7 DUP5 AND SWAP4 SWAP1 SWAP3 DUP5 ISZERO PUSH2 0x4E3 JUMPI PUSH2 0x266 DUP8 ISZERO ISZERO PUSH2 0x547 JUMP JUMPDEST DUP6 MLOAD SWAP8 PUSH4 0x23B872DD PUSH1 0xE0 SHL DUP10 MSTORE DUP6 DUP6 DUP11 ADD MSTORE ADDRESS DUP5 DUP11 ADD MSTORE DUP8 PUSH1 0x44 DUP11 ADD MSTORE PUSH1 0x20 SWAP9 DUP10 DUP2 PUSH1 0x64 DUP2 DUP7 DUP7 PUSH32 0x0 AND GAS CALL SWAP1 DUP2 ISZERO PUSH2 0x4D9 JUMPI DUP4 SWAP2 PUSH2 0x4A3 JUMPI JUMPDEST POP ISZERO PUSH2 0x471 JUMPI PUSH32 0x0 AND DUP1 EXTCODESIZE ISZERO PUSH2 0xB8 JUMPI DUP7 MLOAD PUSH4 0x2770A7EB PUSH1 0xE2 SHL DUP2 MSTORE ADDRESS DUP7 DUP3 ADD SWAP1 DUP2 MSTORE PUSH1 0x20 DUP2 ADD DUP11 SWAP1 MSTORE SWAP1 SWAP2 DUP4 SWAP2 DUP4 SWAP2 SWAP1 DUP3 SWAP1 DUP5 SWAP1 DUP3 SWAP1 PUSH1 0x40 ADD SUB SWAP3 GAS CALL DUP1 ISZERO PUSH2 0x467 JUMPI PUSH2 0x458 JUMPI JUMPDEST POP SWAP1 DUP7 SELFBALANCE LT ISZERO DUP1 PUSH2 0x44D JUMPI JUMPDEST ISZERO PUSH2 0x417 JUMPI DUP2 DUP1 DUP1 DUP10 DUP2 SWAP5 PUSH2 0x349 DUP3 DUP5 SLOAD PUSH2 0x5E9 JUMP JUMPDEST DUP4 SSTORE PUSH2 0x357 DUP3 PUSH1 0x1 SLOAD PUSH2 0x5E9 JUMP JUMPDEST PUSH1 0x1 SSTORE GAS CALL SWAP1 RETURNDATASIZE ISZERO PUSH2 0x411 JUMPI RETURNDATASIZE SWAP1 PUSH8 0xFFFFFFFFFFFFFFFF DUP3 GT PUSH2 0x3FF JUMPI DUP7 MLOAD SWAP2 PUSH2 0x38A PUSH1 0x1F DUP3 ADD PUSH1 0x1F NOT AND DUP12 ADD DUP5 PUSH2 0x5A6 JUMP JUMPDEST DUP3 MSTORE DUP9 RETURNDATASIZE SWAP3 ADD RETURNDATACOPY JUMPDEST ISZERO PUSH2 0x3CC JUMPI POP POP PUSH32 0xBAC9694AC0DAA55169ABD117086FE32C89401D9A3B15DD1D34E55E0AA4E47A9D DUP3 DUP1 MLOAD DUP6 DUP2 MSTORE DUP6 DUP8 DUP3 ADD MSTORE LOG2 MLOAD SWAP1 DUP2 MSTORE RETURN JUMPDEST DUP4 MLOAD PUSH3 0x461BCD PUSH1 0xE5 SHL DUP2 MSTORE SWAP2 DUP3 ADD DUP7 SWAP1 MSTORE PUSH1 0xE SWAP1 DUP3 ADD MSTORE PUSH14 0x1210905497D4D1539117D1905253 PUSH1 0x92 SHL PUSH1 0x44 DUP3 ADD MSTORE PUSH1 0x64 SWAP1 REVERT JUMPDEST PUSH4 0x4E487B71 PUSH1 0xE0 SHL DUP2 MSTORE PUSH1 0x41 DUP6 MSTORE DUP4 SWAP1 REVERT JUMPDEST POP PUSH2 0x392 JUMP JUMPDEST DUP6 MLOAD PUSH3 0x461BCD PUSH1 0xE5 SHL DUP2 MSTORE DUP1 DUP6 ADD DUP10 SWAP1 MSTORE PUSH1 0x11 DUP2 DUP6 ADD MSTORE PUSH17 0x24A729AAA32324A1A4A2A72A2FA42120A9 PUSH1 0x79 SHL PUSH1 0x44 DUP3 ADD MSTORE PUSH1 0x64 SWAP1 REVERT JUMPDEST POP DUP7 DUP3 SLOAD LT ISZERO PUSH2 0x333 JUMP JUMPDEST PUSH2 0x461 SWAP1 PUSH2 0x57E JUMP JUMPDEST PUSH0 PUSH2 0x327 JUMP JUMPDEST DUP8 MLOAD RETURNDATASIZE DUP5 DUP3 RETURNDATACOPY RETURNDATASIZE SWAP1 REVERT JUMPDEST DUP7 MLOAD PUSH3 0x461BCD PUSH1 0xE5 SHL DUP2 MSTORE DUP1 DUP7 ADD DUP11 SWAP1 MSTORE PUSH1 0xD DUP2 DUP7 ADD MSTORE PUSH13 0x1514905394D1915497D1905253 PUSH1 0x9A SHL PUSH1 0x44 DUP3 ADD MSTORE PUSH1 0x64 SWAP1 REVERT JUMPDEST SWAP1 POP DUP10 DUP2 DUP2 RETURNDATASIZE DUP4 GT PUSH2 0x4D2 JUMPI JUMPDEST PUSH2 0x4BA DUP2 DUP4 PUSH2 0x5A6 JUMP JUMPDEST DUP2 ADD SUB SLT PUSH2 0x1CC JUMPI MLOAD DUP1 ISZERO ISZERO DUP2 SUB PUSH2 0x1CC JUMPI PUSH0 PUSH2 0x2BF JUMP JUMPDEST POP RETURNDATASIZE PUSH2 0x4B0 JUMP JUMPDEST DUP9 MLOAD RETURNDATASIZE DUP6 DUP3 RETURNDATACOPY RETURNDATASIZE SWAP1 REVERT JUMPDEST DUP6 MLOAD PUSH3 0x461BCD PUSH1 0xE5 SHL DUP2 MSTORE PUSH1 0x20 DUP2 DUP7 ADD MSTORE PUSH1 0x8 DUP2 DUP6 ADD MSTORE PUSH8 0x4241445F46524F4D PUSH1 0xC0 SHL PUSH1 0x44 DUP3 ADD MSTORE PUSH1 0x64 SWAP1 REVERT JUMPDEST CALLVALUE PUSH2 0x52D JUMPI PUSH1 0x20 CALLDATASIZE PUSH1 0x3 NOT ADD SLT PUSH2 0x52D JUMPI PUSH1 0x20 PUSH1 0x40 MLOAD PUSH1 0x4 CALLDATALOAD DUP2 MSTORE RETURN JUMPDEST PUSH0 DUP1 REVERT JUMPDEST PUSH1 0x4 CALLDATALOAD SWAP1 PUSH1 0x1 PUSH1 0x1 PUSH1 0xA0 SHL SUB DUP3 AND DUP3 SUB PUSH2 0x52D JUMPI JUMP JUMPDEST ISZERO PUSH2 0x54E JUMPI JUMP JUMPDEST PUSH1 0x40 MLOAD PUSH3 0x461BCD PUSH1 0xE5 SHL DUP2 MSTORE PUSH1 0x20 PUSH1 0x4 DUP3 ADD MSTORE PUSH1 0x8 PUSH1 0x24 DUP3 ADD MSTORE PUSH8 0x1393D7D253941555 PUSH1 0xC2 SHL PUSH1 0x44 DUP3 ADD MSTORE PUSH1 0x64 SWAP1 REVERT JUMPDEST PUSH8 0xFFFFFFFFFFFFFFFF DUP2 GT PUSH2 0x592 JUMPI PUSH1 0x40 MSTORE JUMP JUMPDEST PUSH4 0x4E487B71 PUSH1 0xE0 SHL PUSH0 MSTORE PUSH1 0x41 PUSH1 0x4 MSTORE PUSH1 0x24 PUSH0 REVERT JUMPDEST SWAP1 PUSH1 0x1F DUP1 NOT SWAP2 ADD AND DUP2 ADD SWAP1 DUP2 LT PUSH8 0xFFFFFFFFFFFFFFFF DUP3 GT OR PUSH2 0x592 JUMPI PUSH1 0x40 MSTORE JUMP JUMPDEST SWAP2 SWAP1 DUP3 ADD DUP1 SWAP3 GT PUSH2 0x5D5 JUMPI JUMP JUMPDEST PUSH4 0x4E487B71 PUSH1 0xE0 SHL PUSH0 MSTORE PUSH1 0x11 PUSH1 0x4 MSTORE PUSH1 0x24 PUSH0 REVERT JUMPDEST SWAP2 SWAP1 DUP3 SUB SWAP2 DUP3 GT PUSH2 0x5D5 JUMPI JUMP INVALID LOG2 PUSH5 0x6970667358 0x22 SLT KECCAK256 JUMPI 0xD5 0xE2 SWAP12 0xB6 JUMPI CODECOPY LT ADDMOD ADDMOD 0x29 DUP10 SSTORE ORIGIN 0xD9 0xB4 NOT EXTCODEHASH DUP8 ADD SHL PC 0xE SWAP11 0x49 PUSH12 0xF498A270F0B264736F6C6343 STOP ADDMOD EQ STOP CALLER "},"methodIdentifiers":{"buy(address)":"f088d547","getPriceForBuy(uint256)":"e60da41d","getPriceForSell(uint256)":"3a3f161a","reserves()":"75172a8b","sell(address,uint256)":"6c197ff5","token()":"fc0c546a"}}}}}