{"project/contracts/BondingCurveFactory.sol":{"BondingCurveFactory":{"abi":[{"anonymous":false,"inputs":[{"indexed":false,"internalType":"address","name":"token","type":"address"},{"indexed":false,"internalType":"address","name":"pool","type":"address"},{"indexed":false,"internalType":"string","name":"name","type":"string"},{"indexed":false,"internalType":"string","name":"symbol","type":"string"},{"indexed":false,"internalType":"string","name":"iconURI","type":"string"},{"indexed":false,"internalType":"string","name":"projectURI","type":"string"},{"indexed":true,"internalType":"address","name":"creator","type":"address"}],"name":"TokenCreated","type":"event"},{"inputs":[{"internalType":"uint256","name":"index","type":"uint256"}],"name":"allTokens","outputs":[{"internalType":"address","name":"token","type":"address"}],"stateMutability":"view","type":"function"},{"inputs":[],"name":"allTokensLength","outputs":[{"internalType":"uint256","name":"length","type":"uint256"}],"stateMutability":"view","type":"function"},{"inputs":[{"internalType":"string","name":"name","type":"string"},{"internalType":"string","name":"symbol","type":"string"},{"internalType":"string","name":"iconURI","type":"string"},{"internalType":"string","name":"projectURI","type":"string"},{"internalType":"uint256","name":"initialBuyAmountWei","type":"uint256"}],"name":"createToken","outputs":[{"internalType":"address","name":"token","type":"address"},{"internalType":"address","name":"pool","type":"address"}],"stateMutability":"payable","type":"function"},{"inputs":[{"internalType":"address","name":"token","type":"address"}],"name":"getPool","outputs":[{"internalType":"address","name":"pool","type":"address"}],"stateMutability":"view","type":"function"},{"inputs":[{"internalType":"address","name":"","type":"address"}],"name":"metadataOf","outputs":[{"internalType":"string","name":"iconURI","type":"string"},{"internalType":"string","name":"projectURI","type":"string"}],"stateMutability":"view","type":"function"},{"inputs":[{"internalType":"address","name":"","type":"address"}],"name":"poolOf","outputs":[{"internalType":"address","name":"","type":"address"}],"stateMutability":"view","type":"function"}],"evm":{"bytecode":{"linkReferences":{},"object":"6080806040523461001657611f0e908161001b8239f35b5f80fdfe6080604052600436101562000012575f80fd5b5f803560e01c8063634282af146200087357806372397ad5146200014d578063988b1fa71462000107578063bbe4f6db1462000107578063dbb80e4214620000e85763e194aa251462000063575f80fd5b34620000e5576020366003190112620000e5576004356001600160a01b03811690819003620000e15781604091620000ce9352600260205220620000dd620000b96001620000b18462000940565b930162000940565b604051938493604085526040850190620009ed565b908382036020850152620009ed565b0390f35b5080fd5b80fd5b5034620000e55780600319360112620000e55760209054604051908152f35b5034620000e5576020366003190112620000e5576001600160a01b03600435818116908190036200014957826040916020945260018452205416604051908152f35b8280fd5b5060a0366003190112620000e5576004356001600160401b038111620000e1576200017d903690600401620008af565b90916024356001600160401b038111620000e157620001a1903690600401620008af565b906044356001600160401b0381116200086f57620001c4903690600401620008af565b6064356001600160401b0381116200086b57620001e6903690600401620008af565b9390948715158062000861575b15620008315760843534036200080057604051610d1b81818101106001600160401b038284011117620007e157808291620011be8339606082820181815262000258916200024491018d8f62000a2d565b828401810360208486010152858762000a2d565b906040309184010152039088f08015620007f55760018060a01b031697604051806106cf8101106001600160401b036106cf83011117620007e1576106cf62000aef82396106cf81018a81528190036020019089f08015620007d6576001600160a01b031697893b15620000e557604051637e51dad560e11b8152600481018a90528181602481838f5af18015620007cb57620007b2575b50608435620006fc575b89815260016020526040812080546001600160a01b0319168a17905580546801000000000000000081101562000603578060016200033b9201835562000a69565b81549060031b908c821b9160018060a01b03901b1916179055604051908160408101106001600160401b03604084011117620006e857604082016040526200038536878962000ab3565b82526200039436898b62000ab3565b60208301528a81526002602052604081209180518051906001600160401b038211620006d457620003c68554620008e3565b601f81116200068e575b50602090601f83116001146200062357602093929185918362000617575b50508160011b915f199060031b1c19161784555b0151908151916001600160401b0383116200060357620004266001850154620008e3565b601f8111620005ba575b50602091601f84116001146200050b5795620004c160409f8f9a95978f9c9760017f9a51e97160effe955537dd320cc09d50578e4af4b1003b1c5a21fed365273dbc9f9b9a80620004d099620004f09f99620004df9e92620004ff575b50505f19600383901b1c191690821b179101555b6040519c8d9c8d5260208d0152604060c0908d015260c08c019162000a2d565b9189830360608b015262000a2d565b91868303608088015262000a2d565b9083820360a0850152339662000a2d565b0390a282519182526020820152f35b015190505f806200048d565b919060018501835260208320925b601f1985168110620005a1575095620004c160409f8f9a95978f9c9760017f9a51e97160effe955537dd320cc09d50578e4af4b1003b1c5a21fed365273dbc9f9b8b620004d099620004f09f998493620004df9f601f1981161062000588575b505050811b01910155620004a1565b01515f1960f88460031b161c191690555f808062000579565b9192602060018192868501518155019401920162000519565b60018501835260208320601f850160051c810160208610620005fb575b601f830160051c82018110620005ef57505062000430565b848155600101620005d7565b5080620005d7565b634e487b7160e01b82526041600452602482fd5b015190505f80620003ee565b858552602085209190601f198416865b8181106200067557509160019391856020979694106200065c575b505050811b01845562000402565b01515f1960f88460031b161c191690555f80806200064e565b9293602060018192878601518155019501930162000633565b85855260208520601f840160051c810160208510620006cc575b601f830160051c82018110620006c0575050620003d0565b868155600101620006a8565b5080620006a8565b634e487b7160e01b84526041600452602484fd5b634e487b7160e01b5f52604160045260245ffd5b60405163f088d54760e01b6020820152336024820152602481528060608101106001600160401b03606083011117620006e857818160608293016040526020815191016084358d5af13d15620007ac573d620007588162000a4d565b906200076860405192836200091e565b81528260203d92013e5b620002fa5760405162461bcd60e51b815260206004820152600d60248201526c1253925517d0955657d1905253609a1b6044820152606490fd5b62000772565b6001600160401b03811162000603576040525f620002f0565b6040513d84823e3d90fd5b6040513d8a823e3d90fd5b634e487b7160e01b89526041600452602489fd5b6040513d89823e3d90fd5b60405162461bcd60e51b81526020600482015260096024820152684241445f56414c554560b81b6044820152606490fd5b60405162461bcd60e51b81526020600482015260086024820152674241445f4d45544160c01b6044820152606490fd5b50801515620001f3565b8580fd5b8380fd5b5034620000e5576020366003190112620000e55760206200089660043562000a69565b905460405160039290921b1c6001600160a01b03168152f35b9181601f84011215620008df578235916001600160401b038311620008df5760208381860195010111620008df57565b5f80fd5b90600182811c9216801562000913575b6020831014620008ff57565b634e487b7160e01b5f52602260045260245ffd5b91607f1691620008f3565b90601f801991011681019081106001600160401b03821117620006e857604052565b9060405191825f8254926200095584620008e3565b9081845260019485811690815f14620009c8575060011462000984575b505062000982925003836200091e565b565b909391505f52602090815f20935f915b818310620009af5750506200098293508201015f8062000972565b8554888401850152948501948794509183019162000994565b9150506200098294506020925060ff191682840152151560051b8201015f8062000972565b91908251928382525f5b84811062000a18575050825f602080949584010152601f8019910116010190565b602081830181015184830182015201620009f7565b908060209392818452848401375f828201840152601f01601f1916010190565b6001600160401b038111620006e857601f01601f191660200190565b905f91825481101562000a9f578280527f290decd9548b62a8d60345a988386fc84ba6bc95484008f6362f93160ef3e563019190565b634e487b7160e01b83526032600452602483fd5b92919262000ac18262000a4d565b9162000ad160405193846200091e565b829481845281830111620008df578281602093845f96013701015256fe60e03461008a57601f6106cf38819003918201601f19168301916001600160401b0383118484101761008e5780849260209460405283398101031261008a57516001600160a01b0381169081810361008a576080528060a05260c05260405161062c90816100a38239608051816089015260a0518161028f015260c05181818160f301526102c70152f35b5f80fd5b634e487b7160e01b5f52604160045260245ffdfe6040608081526004908136101561002c575b5050361561001d575f80fd5b610028345f546105c8565b5f55005b5f91823560e01c9081633a3f161a146105105781636c197ff51461022657816375172a8b14610201578163e60da41d146101fc578163f088d547146100bc575063fc0c546a0361001157346100b857816003193601126100b857517f00000000000000000000000000000000000000000000000000000000000000006001600160a01b03168152602090f35b5080fd5b905060203660031901126101cc576100d2610531565b906001600160a01b03808316156101d0579084916100f1341515610547565b7f000000000000000000000000000000000000000000000000000000000000000016803b156101cc5784516340c10f1960e01b81526001600160a01b03909416918401918252346020830152839182908490829060400103925af180156101c0576101ac575b506020916101663482546105c8565b9055610174346001546105c8565b600155805134815234838201527fa9a40dec7a304e5915d11358b968c1e8d365992abf20f82285d1df1b30c8e24c823392a251348152f35b6101b6839161057e565b6100b8575f610157565b505051903d90823e3d90fd5b8280fd5b835162461bcd60e51b815260208184015260066024820152654241445f544f60d01b6044820152606490fd5b610510565b8284346102235780600319360112610223575460015482519182526020820152f35b80fd5b919050346101cc57806003193601126101cc57610241610531565b6001600160a01b0393602480359486841693909284156104e357610266871515610547565b8551976323b872dd60e01b895285858a015230848a01528760448a0152602098898160648186867f0000000000000000000000000000000000000000000000000000000000000000165af19081156104d95783916104a3575b5015610471577f000000000000000000000000000000000000000000000000000000000000000016803b156100b8578651632770a7eb60e21b815230868201908152602081018a90529091839183919082908490829060400103925af1801561046757610458575b5090864710158061044d575b15610417578180808981946103498284546105e9565b8355610357826001546105e9565b6001555af1903d15610411573d9067ffffffffffffffff82116103ff5786519161038a601f8201601f19168b01846105a6565b8252883d92013e5b156103cc5750507fbac9694ac0daa55169abd117086fe32c89401d9a3b15dd1d34e55e0aa4e47a9d8280518581528587820152a251908152f35b835162461bcd60e51b8152918201869052600e908201526d1210905497d4d1539117d190525360921b6044820152606490fd5b634e487b7160e01b8152604185528390fd5b50610392565b855162461bcd60e51b81528085018990526011818501527024a729aaa32324a1a4a2a72a2fa42120a960791b6044820152606490fd5b508682541015610333565b6104619061057e565b5f610327565b87513d84823e3d90fd5b865162461bcd60e51b81528086018a9052600d818601526c1514905394d1915497d1905253609a1b6044820152606490fd5b90508981813d83116104d2575b6104ba81836105a6565b810103126101cc575180151581036101cc575f6102bf565b503d6104b0565b88513d85823e3d90fd5b855162461bcd60e51b8152602081860152600881850152674241445f46524f4d60c01b6044820152606490fd5b3461052d57602036600319011261052d5760206040516004358152f35b5f80fd5b600435906001600160a01b038216820361052d57565b1561054e57565b60405162461bcd60e51b81526020600482015260086024820152671393d7d25394155560c21b6044820152606490fd5b67ffffffffffffffff811161059257604052565b634e487b7160e01b5f52604160045260245ffd5b90601f8019910116810190811067ffffffffffffffff82111761059257604052565b919082018092116105d557565b634e487b7160e01b5f52601160045260245ffd5b919082039182116105d55756fea264697066735822122057d5e29bb6573910080829895532d9b4193f87011b580e9a496bf498a270f0b264736f6c63430008140033608060405234620003495762000d1b803803806200001d816200034d565b928339810190606081830312620003495780516001600160401b03908181116200034957836200004f91840162000373565b906020938484015182811162000349576040916200006f91860162000373565b9301516001600160a01b0381169390849003620003495782519082821162000335575f8054926001958685811c951680156200032a575b8986101462000316578190601f95868111620002c3575b5089908683116001146200026057849262000254575b50505f19600383901b1c191690861b1781555b8151938411620002405784548581811c9116801562000235575b888210146200022157838111620001d9575b5086928411600114620001745783949596509262000168575b50505f19600383901b1c191690821b1790555b60018060a01b03193381600554161760055560065416176006556040516109379081620003e48239f35b015190505f806200012b565b9190601f1984169685845280842093905b888210620001c15750508385969710620001a8575b505050811b0190556200013e565b01515f1960f88460031b161c191690555f80806200019a565b80878596829496860151815501950193019062000185565b8582528782208480870160051c8201928a881062000217575b0160051c019086905b8281106200020b57505062000112565b838155018690620001fb565b92508192620001f2565b634e487b7160e01b82526022600452602482fd5b90607f169062000100565b634e487b7160e01b81526041600452602490fd5b015190505f80620000d3565b8480528a85208994509190601f198416865b8d828210620002ac575050841162000293575b505050811b018155620000e6565b01515f1960f88460031b161c191690555f808062000285565b8385015186558c9790950194938401930162000272565b9091508380528984208680850160051c8201928c86106200030c575b918a91869594930160051c01915b828110620002fd575050620000bd565b8681558594508a9101620002ed565b92508192620002df565b634e487b7160e01b83526022600452602483fd5b94607f1694620000a6565b634e487b7160e01b5f52604160045260245ffd5b5f80fd5b6040519190601f01601f191682016001600160401b038111838210176200033557604052565b919080601f84011215620003495782516001600160401b0381116200033557602090620003a9601f8201601f191683016200034d565b9281845282828701011162000349575f5b818110620003cf5750825f9394955001015290565b8581018301518482018401528201620003ba56fe60806040818152600480361015610014575f80fd5b5f92833560e01c90816306fdde03146105b857508063075461721461058f578063095ea7b31461056557806318160ddd1461054657806323b872dd146104a1578063313ce5671461048557806340c10f19146103ef57806370a08231146103b75780638da5cb5b1461038e57806395d89b411461026d5780639dc29fac146101ba578063a9059cbb14610185578063dd62ed3e1461013d5763fca3b5aa146100ba575f80fd5b34610139576020366003190112610139576100d36106f2565b6005546001600160a01b03939192919084163303610109575050166bffffffffffffffffffffffff60a01b600654161760065580f35b906020606492519162461bcd60e51b8352820152600a60248201526927a7262cafa7aba722a960b11b6044820152fd5b8280fd5b5034610139578160031936011261013957602092829161015b6106f2565b61016361070c565b6001600160a01b03918216845291865283832091168252845220549051908152f35b5050346101b657806003193601126101b6576020906101af6101a56106f2565b60243590336107f2565b5160018152f35b5080fd5b509190346101b657806003193601126101b6576101d56106f2565b600654602435916001600160a01b03916101f29083163314610722565b16918284526003602052818185205461020d82821015610792565b8486526003602052038185205560025482810390811161025a578493927fddf252ad1be2c89b69c2b068fc378daa952ba7f163c4a11628f55a4df523b3ef9260209260025551908152a380f35b634e487b7160e01b855260118652602485fd5b509190346101b657816003193601126101b65780519082600180549081811c90808316928315610384575b6020938484108114610371578388529081156103555750600114610300575b505050829003601f01601f191682019267ffffffffffffffff8411838510176102ed57508291826102e99252826106ab565b0390f35b634e487b7160e01b815260418552602490fd5b8087529192508591837fb10e2d527612073b26eecdfd717e6a320cf44b4afac2b0732d9fcbe2b7fa0cf65b83851061034157505050508301015f80806102b7565b80548886018301529301928490820161032b565b60ff1916878501525050151560051b84010190505f80806102b7565b634e487b7160e01b895260228a52602489fd5b91607f1691610298565b5050346101b657816003193601126101b65760055490516001600160a01b039091168152602090f35b5050346101b65760203660031901126101b65760209181906001600160a01b036103df6106f2565b1681526003845220549051908152f35b5050346101b657806003193601126101b657817fddf252ad1be2c89b69c2b068fc378daa952ba7f163c4a11628f55a4df523b3ef602061042d6106f2565b600654602435916001600160a01b039161044a9083163314610722565b169461045786151561075c565b610463826002546107d1565b6002558585526003835280852061047b8382546107d1565b905551908152a380f35b5050346101b657816003193601126101b6576020905160128152f35b508290346101b65760603660031901126101b6576104bd6106f2565b6104c561070c565b6001600160a01b0382168452602083815285852033865290529284902054604435939284821061050a576020866101af8787876105058389033383610873565b6107f2565b606490602087519162461bcd60e51b83528201526016602482015275494e53554646494349454e545f414c4c4f57414e434560501b6044820152fd5b5050346101b657816003193601126101b6576020906002549051908152f35b5050346101b657806003193601126101b6576020906101af6105856106f2565b6024359033610873565b5050346101b657816003193601126101b65760065490516001600160a01b039091168152602090f35b8491508334610139578260031936011261013957828354600181811c908083169283156106a1575b602093848410811461037157838852908115610685575060011461063057505050829003601f01601f191682019267ffffffffffffffff8411838510176102ed57508291826102e99252826106ab565b8680529192508591837f290decd9548b62a8d60345a988386fc84ba6bc95484008f6362f93160ef3e5635b83851061067157505050508301018580806102b7565b80548886018301529301928490820161065b565b60ff1916878501525050151560051b84010190508580806102b7565b91607f16916105e0565b602080825282518183018190529093925f5b8281106106de57505060409293505f838284010152601f8019910116010190565b8181018601518482016040015285016106bd565b600435906001600160a01b038216820361070857565b5f80fd5b602435906001600160a01b038216820361070857565b1561072957565b60405162461bcd60e51b815260206004820152600b60248201526a27a7262cafa6a4a72a22a960a91b6044820152606490fd5b1561076357565b60405162461bcd60e51b81526020600482015260076024820152665a45524f5f544f60c81b6044820152606490fd5b1561079957565b60405162461bcd60e51b815260206004820152601060248201526f125394d551919250d251539517d0905360821b6044820152606490fd5b919082018092116107de57565b634e487b7160e01b5f52601160045260245ffd5b6001600160a01b0391821692917fddf252ad1be2c89b69c2b068fc378daa952ba7f163c4a11628f55a4df523b3ef916020919061083086151561075c565b169260405f85815260038452828282205461084d82821015610792565b878352600386520382822055868152206108688282546107d1565b9055604051908152a3565b6001600160a01b0391821692919083156108cd577f8c5be1e5ebec7d5bd14f71427d1e84f3dd0314c0f7b2291e5b200ac8c7c3b925916020911692835f526004825260405f20855f5282528060405f2055604051908152a3565b60405162461bcd60e51b815260206004820152600c60248201526b2d22a927afa9a822a72222a960a11b6044820152606490fdfea2646970667358221220fb5ee267b74061fe4868b9255f8354e45faf56549338491f7864919d73f87d2664736f6c63430008140033a26469706673582212200e4d5c984e61e322c0cb29a206754a1bb54e0974c3047c33477fffc1e0f0914c64736f6c63430008140033","opcodes":"PUSH1 0x80 DUP1 PUSH1 0x40 MSTORE CALLVALUE PUSH2 0x16 JUMPI PUSH2 0x1F0E SWAP1 DUP2 PUSH2 0x1B DUP3 CODECOPY RETURN JUMPDEST PUSH0 DUP1 REVERT INVALID PUSH1 0x80 PUSH1 0x40 MSTORE PUSH1 0x4 CALLDATASIZE LT ISZERO PUSH3 0x12 JUMPI PUSH0 DUP1 REVERT JUMPDEST PUSH0 DUP1 CALLDATALOAD PUSH1 0xE0 SHR DUP1 PUSH4 0x634282AF EQ PUSH3 0x873 JUMPI DUP1 PUSH4 0x72397AD5 EQ PUSH3 0x14D JUMPI DUP1 PUSH4 0x988B1FA7 EQ PUSH3 0x107 JUMPI DUP1 PUSH4 0xBBE4F6DB EQ PUSH3 0x107 JUMPI DUP1 PUSH4 0xDBB80E42 EQ PUSH3 0xE8 JUMPI PUSH4 0xE194AA25 EQ PUSH3 0x63 JUMPI PUSH0 DUP1 REVERT JUMPDEST CALLVALUE PUSH3 0xE5 JUMPI PUSH1 0x20 CALLDATASIZE PUSH1 0x3 NOT ADD SLT PUSH3 0xE5 JUMPI PUSH1 0x4 CALLDATALOAD PUSH1 0x1 PUSH1 0x1 PUSH1 0xA0 SHL SUB DUP2 AND SWAP1 DUP2 SWAP1 SUB PUSH3 0xE1 JUMPI DUP2 PUSH1 0x40 SWAP2 PUSH3 0xCE SWAP4 MSTORE PUSH1 0x2 PUSH1 0x20 MSTORE KECCAK256 PUSH3 0xDD PUSH3 0xB9 PUSH1 0x1 PUSH3 0xB1 DUP5 PUSH3 0x940 JUMP JUMPDEST SWAP4 ADD PUSH3 0x940 JUMP JUMPDEST PUSH1 0x40 MLOAD SWAP4 DUP5 SWAP4 PUSH1 0x40 DUP6 MSTORE PUSH1 0x40 DUP6 ADD SWAP1 PUSH3 0x9ED JUMP JUMPDEST SWAP1 DUP4 DUP3 SUB PUSH1 0x20 DUP6 ADD MSTORE PUSH3 0x9ED JUMP JUMPDEST SUB SWAP1 RETURN JUMPDEST POP DUP1 REVERT JUMPDEST DUP1 REVERT JUMPDEST POP CALLVALUE PUSH3 0xE5 JUMPI DUP1 PUSH1 0x3 NOT CALLDATASIZE ADD SLT PUSH3 0xE5 JUMPI PUSH1 0x20 SWAP1 SLOAD PUSH1 0x40 MLOAD SWAP1 DUP2 MSTORE RETURN JUMPDEST POP CALLVALUE PUSH3 0xE5 JUMPI PUSH1 0x20 CALLDATASIZE PUSH1 0x3 NOT ADD SLT PUSH3 0xE5 JUMPI PUSH1 0x1 PUSH1 0x1 PUSH1 0xA0 SHL SUB PUSH1 0x4 CALLDATALOAD DUP2 DUP2 AND SWAP1 DUP2 SWAP1 SUB PUSH3 0x149 JUMPI DUP3 PUSH1 0x40 SWAP2 PUSH1 0x20 SWAP5 MSTORE PUSH1 0x1 DUP5 MSTORE KECCAK256 SLOAD AND PUSH1 0x40 MLOAD SWAP1 DUP2 MSTORE RETURN JUMPDEST DUP3 DUP1 REVERT JUMPDEST POP PUSH1 0xA0 CALLDATASIZE PUSH1 0x3 NOT ADD SLT PUSH3 0xE5 JUMPI PUSH1 0x4 CALLDATALOAD PUSH1 0x1 PUSH1 0x1 PUSH1 0x40 SHL SUB DUP2 GT PUSH3 0xE1 JUMPI PUSH3 0x17D SWAP1 CALLDATASIZE SWAP1 PUSH1 0x4 ADD PUSH3 0x8AF JUMP JUMPDEST SWAP1 SWAP2 PUSH1 0x24 CALLDATALOAD PUSH1 0x1 PUSH1 0x1 PUSH1 0x40 SHL SUB DUP2 GT PUSH3 0xE1 JUMPI PUSH3 0x1A1 SWAP1 CALLDATASIZE SWAP1 PUSH1 0x4 ADD PUSH3 0x8AF JUMP JUMPDEST SWAP1 PUSH1 0x44 CALLDATALOAD PUSH1 0x1 PUSH1 0x1 PUSH1 0x40 SHL SUB DUP2 GT PUSH3 0x86F JUMPI PUSH3 0x1C4 SWAP1 CALLDATASIZE SWAP1 PUSH1 0x4 ADD PUSH3 0x8AF JUMP JUMPDEST PUSH1 0x64 CALLDATALOAD PUSH1 0x1 PUSH1 0x1 PUSH1 0x40 SHL SUB DUP2 GT PUSH3 0x86B JUMPI PUSH3 0x1E6 SWAP1 CALLDATASIZE SWAP1 PUSH1 0x4 ADD PUSH3 0x8AF JUMP JUMPDEST SWAP4 SWAP1 SWAP5 DUP8 ISZERO ISZERO DUP1 PUSH3 0x861 JUMPI JUMPDEST ISZERO PUSH3 0x831 JUMPI PUSH1 0x84 CALLDATALOAD CALLVALUE SUB PUSH3 0x800 JUMPI PUSH1 0x40 MLOAD PUSH2 0xD1B DUP2 DUP2 DUP2 ADD LT PUSH1 0x1 PUSH1 0x1 PUSH1 0x40 SHL SUB DUP3 DUP5 ADD GT OR PUSH3 0x7E1 JUMPI DUP1 DUP3 SWAP2 PUSH3 0x11BE DUP4 CODECOPY PUSH1 0x60 DUP3 DUP3 ADD DUP2 DUP2 MSTORE PUSH3 0x258 SWAP2 PUSH3 0x244 SWAP2 ADD DUP14 DUP16 PUSH3 0xA2D JUMP JUMPDEST DUP3 DUP5 ADD DUP2 SUB PUSH1 0x20 DUP5 DUP7 ADD ADD MSTORE DUP6 DUP8 PUSH3 0xA2D JUMP JUMPDEST SWAP1 PUSH1 0x40 ADDRESS SWAP2 DUP5 ADD ADD MSTORE SUB SWAP1 DUP9 CREATE DUP1 ISZERO PUSH3 0x7F5 JUMPI PUSH1 0x1 DUP1 PUSH1 0xA0 SHL SUB AND SWAP8 PUSH1 0x40 MLOAD DUP1 PUSH2 0x6CF DUP2 ADD LT PUSH1 0x1 PUSH1 0x1 PUSH1 0x40 SHL SUB PUSH2 0x6CF DUP4 ADD GT OR PUSH3 0x7E1 JUMPI PUSH2 0x6CF PUSH3 0xAEF DUP3 CODECOPY PUSH2 0x6CF DUP2 ADD DUP11 DUP2 MSTORE DUP2 SWAP1 SUB PUSH1 0x20 ADD SWAP1 DUP10 CREATE DUP1 ISZERO PUSH3 0x7D6 JUMPI PUSH1 0x1 PUSH1 0x1 PUSH1 0xA0 SHL SUB AND SWAP8 DUP10 EXTCODESIZE ISZERO PUSH3 0xE5 JUMPI PUSH1 0x40 MLOAD PUSH4 0x7E51DAD5 PUSH1 0xE1 SHL DUP2 MSTORE PUSH1 0x4 DUP2 ADD DUP11 SWAP1 MSTORE DUP2 DUP2 PUSH1 0x24 DUP2 DUP4 DUP16 GAS CALL DUP1 ISZERO PUSH3 0x7CB JUMPI PUSH3 0x7B2 JUMPI JUMPDEST POP PUSH1 0x84 CALLDATALOAD PUSH3 0x6FC JUMPI JUMPDEST DUP10 DUP2 MSTORE PUSH1 0x1 PUSH1 0x20 MSTORE PUSH1 0x40 DUP2 KECCAK256 DUP1 SLOAD PUSH1 0x1 PUSH1 0x1 PUSH1 0xA0 SHL SUB NOT AND DUP11 OR SWAP1 SSTORE DUP1 SLOAD PUSH9 0x10000000000000000 DUP2 LT ISZERO PUSH3 0x603 JUMPI DUP1 PUSH1 0x1 PUSH3 0x33B SWAP3 ADD DUP4 SSTORE PUSH3 0xA69 JUMP JUMPDEST DUP2 SLOAD SWAP1 PUSH1 0x3 SHL SWAP1 DUP13 DUP3 SHL SWAP2 PUSH1 0x1 DUP1 PUSH1 0xA0 SHL SUB SWAP1 SHL NOT AND OR SWAP1 SSTORE PUSH1 0x40 MLOAD SWAP1 DUP2 PUSH1 0x40 DUP2 ADD LT PUSH1 0x1 PUSH1 0x1 PUSH1 0x40 SHL SUB PUSH1 0x40 DUP5 ADD GT OR PUSH3 0x6E8 JUMPI PUSH1 0x40 DUP3 ADD PUSH1 0x40 MSTORE PUSH3 0x385 CALLDATASIZE DUP8 DUP10 PUSH3 0xAB3 JUMP JUMPDEST DUP3 MSTORE PUSH3 0x394 CALLDATASIZE DUP10 DUP12 PUSH3 0xAB3 JUMP JUMPDEST PUSH1 0x20 DUP4 ADD MSTORE DUP11 DUP2 MSTORE PUSH1 0x2 PUSH1 0x20 MSTORE PUSH1 0x40 DUP2 KECCAK256 SWAP2 DUP1 MLOAD DUP1 MLOAD SWAP1 PUSH1 0x1 PUSH1 0x1 PUSH1 0x40 SHL SUB DUP3 GT PUSH3 0x6D4 JUMPI PUSH3 0x3C6 DUP6 SLOAD PUSH3 0x8E3 JUMP JUMPDEST PUSH1 0x1F DUP2 GT PUSH3 0x68E JUMPI JUMPDEST POP PUSH1 0x20 SWAP1 PUSH1 0x1F DUP4 GT PUSH1 0x1 EQ PUSH3 0x623 JUMPI PUSH1 0x20 SWAP4 SWAP3 SWAP2 DUP6 SWAP2 DUP4 PUSH3 0x617 JUMPI JUMPDEST POP POP DUP2 PUSH1 0x1 SHL SWAP2 PUSH0 NOT SWAP1 PUSH1 0x3 SHL SHR NOT AND OR DUP5 SSTORE JUMPDEST ADD MLOAD SWAP1 DUP2 MLOAD SWAP2 PUSH1 0x1 PUSH1 0x1 PUSH1 0x40 SHL SUB DUP4 GT PUSH3 0x603 JUMPI PUSH3 0x426 PUSH1 0x1 DUP6 ADD SLOAD PUSH3 0x8E3 JUMP JUMPDEST PUSH1 0x1F DUP2 GT PUSH3 0x5BA JUMPI JUMPDEST POP PUSH1 0x20 SWAP2 PUSH1 0x1F DUP5 GT PUSH1 0x1 EQ PUSH3 0x50B JUMPI SWAP6 PUSH3 0x4C1 PUSH1 0x40 SWAP16 DUP16 SWAP11 SWAP6 SWAP8 DUP16 SWAP13 SWAP8 PUSH1 0x1 PUSH32 0x9A51E97160EFFE955537DD320CC09D50578E4AF4B1003B1C5A21FED365273DBC SWAP16 SWAP12 SWAP11 DUP1 PUSH3 0x4D0 SWAP10 PUSH3 0x4F0 SWAP16 SWAP10 PUSH3 0x4DF SWAP15 SWAP3 PUSH3 0x4FF JUMPI JUMPDEST POP POP PUSH0 NOT PUSH1 0x3 DUP4 SWAP1 SHL SHR NOT AND SWAP1 DUP3 SHL OR SWAP2 ADD SSTORE JUMPDEST PUSH1 0x40 MLOAD SWAP13 DUP14 SWAP13 DUP14 MSTORE PUSH1 0x20 DUP14 ADD MSTORE PUSH1 0x40 PUSH1 0xC0 SWAP1 DUP14 ADD MSTORE PUSH1 0xC0 DUP13 ADD SWAP2 PUSH3 0xA2D JUMP JUMPDEST SWAP2 DUP10 DUP4 SUB PUSH1 0x60 DUP12 ADD MSTORE PUSH3 0xA2D JUMP JUMPDEST SWAP2 DUP7 DUP4 SUB PUSH1 0x80 DUP9 ADD MSTORE PUSH3 0xA2D JUMP JUMPDEST SWAP1 DUP4 DUP3 SUB PUSH1 0xA0 DUP6 ADD MSTORE CALLER SWAP7 PUSH3 0xA2D JUMP JUMPDEST SUB SWAP1 LOG2 DUP3 MLOAD SWAP2 DUP3 MSTORE PUSH1 0x20 DUP3 ADD MSTORE RETURN JUMPDEST ADD MLOAD SWAP1 POP PUSH0 DUP1 PUSH3 0x48D JUMP JUMPDEST SWAP2 SWAP1 PUSH1 0x1 DUP6 ADD DUP4 MSTORE PUSH1 0x20 DUP4 KECCAK256 SWAP3 JUMPDEST PUSH1 0x1F NOT DUP6 AND DUP2 LT PUSH3 0x5A1 JUMPI POP SWAP6 PUSH3 0x4C1 PUSH1 0x40 SWAP16 DUP16 SWAP11 SWAP6 SWAP8 DUP16 SWAP13 SWAP8 PUSH1 0x1 PUSH32 0x9A51E97160EFFE955537DD320CC09D50578E4AF4B1003B1C5A21FED365273DBC SWAP16 SWAP12 DUP12 PUSH3 0x4D0 SWAP10 PUSH3 0x4F0 SWAP16 SWAP10 DUP5 SWAP4 PUSH3 0x4DF SWAP16 PUSH1 0x1F NOT DUP2 AND LT PUSH3 0x588 JUMPI JUMPDEST POP POP POP DUP2 SHL ADD SWAP2 ADD SSTORE PUSH3 0x4A1 JUMP JUMPDEST ADD MLOAD PUSH0 NOT PUSH1 0xF8 DUP5 PUSH1 0x3 SHL AND SHR NOT AND SWAP1 SSTORE PUSH0 DUP1 DUP1 PUSH3 0x579 JUMP JUMPDEST SWAP2 SWAP3 PUSH1 0x20 PUSH1 0x1 DUP2 SWAP3 DUP7 DUP6 ADD MLOAD DUP2 SSTORE ADD SWAP5 ADD SWAP3 ADD PUSH3 0x519 JUMP JUMPDEST PUSH1 0x1 DUP6 ADD DUP4 MSTORE PUSH1 0x20 DUP4 KECCAK256 PUSH1 0x1F DUP6 ADD PUSH1 0x5 SHR DUP2 ADD PUSH1 0x20 DUP7 LT PUSH3 0x5FB JUMPI JUMPDEST PUSH1 0x1F DUP4 ADD PUSH1 0x5 SHR DUP3 ADD DUP2 LT PUSH3 0x5EF JUMPI POP POP PUSH3 0x430 JUMP JUMPDEST DUP5 DUP2 SSTORE PUSH1 0x1 ADD PUSH3 0x5D7 JUMP JUMPDEST POP DUP1 PUSH3 0x5D7 JUMP JUMPDEST PUSH4 0x4E487B71 PUSH1 0xE0 SHL DUP3 MSTORE PUSH1 0x41 PUSH1 0x4 MSTORE PUSH1 0x24 DUP3 REVERT JUMPDEST ADD MLOAD SWAP1 POP PUSH0 DUP1 PUSH3 0x3EE JUMP JUMPDEST DUP6 DUP6 MSTORE PUSH1 0x20 DUP6 KECCAK256 SWAP2 SWAP1 PUSH1 0x1F NOT DUP5 AND DUP7 JUMPDEST DUP2 DUP2 LT PUSH3 0x675 JUMPI POP SWAP2 PUSH1 0x1 SWAP4 SWAP2 DUP6 PUSH1 0x20 SWAP8 SWAP7 SWAP5 LT PUSH3 0x65C JUMPI JUMPDEST POP POP POP DUP2 SHL ADD DUP5 SSTORE PUSH3 0x402 JUMP JUMPDEST ADD MLOAD PUSH0 NOT PUSH1 0xF8 DUP5 PUSH1 0x3 SHL AND SHR NOT AND SWAP1 SSTORE PUSH0 DUP1 DUP1 PUSH3 0x64E JUMP JUMPDEST SWAP3 SWAP4 PUSH1 0x20 PUSH1 0x1 DUP2 SWAP3 DUP8 DUP7 ADD MLOAD DUP2 SSTORE ADD SWAP6 ADD SWAP4 ADD PUSH3 0x633 JUMP JUMPDEST DUP6 DUP6 MSTORE PUSH1 0x20 DUP6 KECCAK256 PUSH1 0x1F DUP5 ADD PUSH1 0x5 SHR DUP2 ADD PUSH1 0x20 DUP6 LT PUSH3 0x6CC JUMPI JUMPDEST PUSH1 0x1F DUP4 ADD PUSH1 0x5 SHR DUP3 ADD DUP2 LT PUSH3 0x6C0 JUMPI POP POP PUSH3 0x3D0 JUMP JUMPDEST DUP7 DUP2 SSTORE PUSH1 0x1 ADD PUSH3 0x6A8 JUMP JUMPDEST POP DUP1 PUSH3 0x6A8 JUMP JUMPDEST PUSH4 0x4E487B71 PUSH1 0xE0 SHL DUP5 MSTORE PUSH1 0x41 PUSH1 0x4 MSTORE PUSH1 0x24 DUP5 REVERT JUMPDEST PUSH4 0x4E487B71 PUSH1 0xE0 SHL PUSH0 MSTORE PUSH1 0x41 PUSH1 0x4 MSTORE PUSH1 0x24 PUSH0 REVERT JUMPDEST PUSH1 0x40 MLOAD PUSH4 0xF088D547 PUSH1 0xE0 SHL PUSH1 0x20 DUP3 ADD MSTORE CALLER PUSH1 0x24 DUP3 ADD MSTORE PUSH1 0x24 DUP2 MSTORE DUP1 PUSH1 0x60 DUP2 ADD LT PUSH1 0x1 PUSH1 0x1 PUSH1 0x40 SHL SUB PUSH1 0x60 DUP4 ADD GT OR PUSH3 0x6E8 JUMPI DUP2 DUP2 PUSH1 0x60 DUP3 SWAP4 ADD PUSH1 0x40 MSTORE PUSH1 0x20 DUP2 MLOAD SWAP2 ADD PUSH1 0x84 CALLDATALOAD DUP14 GAS CALL RETURNDATASIZE ISZERO PUSH3 0x7AC JUMPI RETURNDATASIZE PUSH3 0x758 DUP2 PUSH3 0xA4D JUMP JUMPDEST SWAP1 PUSH3 0x768 PUSH1 0x40 MLOAD SWAP3 DUP4 PUSH3 0x91E JUMP JUMPDEST DUP2 MSTORE DUP3 PUSH1 0x20 RETURNDATASIZE SWAP3 ADD RETURNDATACOPY JUMPDEST PUSH3 0x2FA JUMPI PUSH1 0x40 MLOAD PUSH3 0x461BCD PUSH1 0xE5 SHL DUP2 MSTORE PUSH1 0x20 PUSH1 0x4 DUP3 ADD MSTORE PUSH1 0xD PUSH1 0x24 DUP3 ADD MSTORE PUSH13 0x1253925517D0955657D1905253 PUSH1 0x9A SHL PUSH1 0x44 DUP3 ADD MSTORE PUSH1 0x64 SWAP1 REVERT JUMPDEST PUSH3 0x772 JUMP JUMPDEST PUSH1 0x1 PUSH1 0x1 PUSH1 0x40 SHL SUB DUP2 GT PUSH3 0x603 JUMPI PUSH1 0x40 MSTORE PUSH0 PUSH3 0x2F0 JUMP JUMPDEST PUSH1 0x40 MLOAD RETURNDATASIZE DUP5 DUP3 RETURNDATACOPY RETURNDATASIZE SWAP1 REVERT JUMPDEST PUSH1 0x40 MLOAD RETURNDATASIZE DUP11 DUP3 RETURNDATACOPY RETURNDATASIZE SWAP1 REVERT JUMPDEST PUSH4 0x4E487B71 PUSH1 0xE0 SHL DUP10 MSTORE PUSH1 0x41 PUSH1 0x4 MSTORE PUSH1 0x24 DUP10 REVERT JUMPDEST PUSH1 0x40 MLOAD RETURNDATASIZE DUP10 DUP3 RETURNDATACOPY RETURNDATASIZE SWAP1 REVERT JUMPDEST PUSH1 0x40 MLOAD PUSH3 0x461BCD PUSH1 0xE5 SHL DUP2 MSTORE PUSH1 0x20 PUSH1 0x4 DUP3 ADD MSTORE PUSH1 0x9 PUSH1 0x24 DUP3 ADD MSTORE PUSH9 0x4241445F56414C5545 PUSH1 0xB8 SHL PUSH1 0x44 DUP3 ADD MSTORE PUSH1 0x64 SWAP1 REVERT JUMPDEST PUSH1 0x40 MLOAD PUSH3 0x461BCD PUSH1 0xE5 SHL DUP2 MSTORE PUSH1 0x20 PUSH1 0x4 DUP3 ADD MSTORE PUSH1 0x8 PUSH1 0x24 DUP3 ADD MSTORE PUSH8 0x4241445F4D455441 PUSH1 0xC0 SHL PUSH1 0x44 DUP3 ADD MSTORE PUSH1 0x64 SWAP1 REVERT JUMPDEST POP DUP1 ISZERO ISZERO PUSH3 0x1F3 JUMP JUMPDEST DUP6 DUP1 REVERT JUMPDEST DUP4 DUP1 REVERT JUMPDEST POP CALLVALUE PUSH3 0xE5 JUMPI PUSH1 0x20 CALLDATASIZE PUSH1 0x3 NOT ADD SLT PUSH3 0xE5 JUMPI PUSH1 0x20 PUSH3 0x896 PUSH1 0x4 CALLDATALOAD PUSH3 0xA69 JUMP JUMPDEST SWAP1 SLOAD PUSH1 0x40 MLOAD PUSH1 0x3 SWAP3 SWAP1 SWAP3 SHL SHR PUSH1 0x1 PUSH1 0x1 PUSH1 0xA0 SHL SUB AND DUP2 MSTORE RETURN JUMPDEST SWAP2 DUP2 PUSH1 0x1F DUP5 ADD SLT ISZERO PUSH3 0x8DF JUMPI DUP3 CALLDATALOAD SWAP2 PUSH1 0x1 PUSH1 0x1 PUSH1 0x40 SHL SUB DUP4 GT PUSH3 0x8DF JUMPI PUSH1 0x20 DUP4 DUP2 DUP7 ADD SWAP6 ADD ADD GT PUSH3 0x8DF JUMPI JUMP JUMPDEST PUSH0 DUP1 REVERT JUMPDEST SWAP1 PUSH1 0x1 DUP3 DUP2 SHR SWAP3 AND DUP1 ISZERO PUSH3 0x913 JUMPI JUMPDEST PUSH1 0x20 DUP4 LT EQ PUSH3 0x8FF JUMPI JUMP JUMPDEST PUSH4 0x4E487B71 PUSH1 0xE0 SHL PUSH0 MSTORE PUSH1 0x22 PUSH1 0x4 MSTORE PUSH1 0x24 PUSH0 REVERT JUMPDEST SWAP2 PUSH1 0x7F AND SWAP2 PUSH3 0x8F3 JUMP JUMPDEST SWAP1 PUSH1 0x1F DUP1 NOT SWAP2 ADD AND DUP2 ADD SWAP1 DUP2 LT PUSH1 0x1 PUSH1 0x1 PUSH1 0x40 SHL SUB DUP3 GT OR PUSH3 0x6E8 JUMPI PUSH1 0x40 MSTORE JUMP JUMPDEST SWAP1 PUSH1 0x40 MLOAD SWAP2 DUP3 PUSH0 DUP3 SLOAD SWAP3 PUSH3 0x955 DUP5 PUSH3 0x8E3 JUMP JUMPDEST SWAP1 DUP2 DUP5 MSTORE PUSH1 0x1 SWAP5 DUP6 DUP2 AND SWAP1 DUP2 PUSH0 EQ PUSH3 0x9C8 JUMPI POP PUSH1 0x1 EQ PUSH3 0x984 JUMPI JUMPDEST POP POP PUSH3 0x982 SWAP3 POP SUB DUP4 PUSH3 0x91E JUMP JUMPDEST JUMP JUMPDEST SWAP1 SWAP4 SWAP2 POP PUSH0 MSTORE PUSH1 0x20 SWAP1 DUP2 PUSH0 KECCAK256 SWAP4 PUSH0 SWAP2 JUMPDEST DUP2 DUP4 LT PUSH3 0x9AF JUMPI POP POP PUSH3 0x982 SWAP4 POP DUP3 ADD ADD PUSH0 DUP1 PUSH3 0x972 JUMP JUMPDEST DUP6 SLOAD DUP9 DUP5 ADD DUP6 ADD MSTORE SWAP5 DUP6 ADD SWAP5 DUP8 SWAP5 POP SWAP2 DUP4 ADD SWAP2 PUSH3 0x994 JUMP JUMPDEST SWAP2 POP POP PUSH3 0x982 SWAP5 POP PUSH1 0x20 SWAP3 POP PUSH1 0xFF NOT AND DUP3 DUP5 ADD MSTORE ISZERO ISZERO PUSH1 0x5 SHL DUP3 ADD ADD PUSH0 DUP1 PUSH3 0x972 JUMP JUMPDEST SWAP2 SWAP1 DUP3 MLOAD SWAP3 DUP4 DUP3 MSTORE PUSH0 JUMPDEST DUP5 DUP2 LT PUSH3 0xA18 JUMPI POP POP DUP3 PUSH0 PUSH1 0x20 DUP1 SWAP5 SWAP6 DUP5 ADD ADD MSTORE PUSH1 0x1F DUP1 NOT SWAP2 ADD AND ADD ADD SWAP1 JUMP JUMPDEST PUSH1 0x20 DUP2 DUP4 ADD DUP2 ADD MLOAD DUP5 DUP4 ADD DUP3 ADD MSTORE ADD PUSH3 0x9F7 JUMP JUMPDEST SWAP1 DUP1 PUSH1 0x20 SWAP4 SWAP3 DUP2 DUP5 MSTORE DUP5 DUP5 ADD CALLDATACOPY PUSH0 DUP3 DUP3 ADD DUP5 ADD MSTORE PUSH1 0x1F ADD PUSH1 0x1F NOT AND ADD ADD SWAP1 JUMP JUMPDEST PUSH1 0x1 PUSH1 0x1 PUSH1 0x40 SHL SUB DUP2 GT PUSH3 0x6E8 JUMPI PUSH1 0x1F ADD PUSH1 0x1F NOT AND PUSH1 0x20 ADD SWAP1 JUMP JUMPDEST SWAP1 PUSH0 SWAP2 DUP3 SLOAD DUP2 LT ISZERO PUSH3 0xA9F JUMPI DUP3 DUP1 MSTORE PUSH32 0x290DECD9548B62A8D60345A988386FC84BA6BC95484008F6362F93160EF3E563 ADD SWAP2 SWAP1 JUMP JUMPDEST PUSH4 0x4E487B71 PUSH1 0xE0 SHL DUP4 MSTORE PUSH1 0x32 PUSH1 0x4 MSTORE PUSH1 0x24 DUP4 REVERT JUMPDEST SWAP3 SWAP2 SWAP3 PUSH3 0xAC1 DUP3 PUSH3 0xA4D JUMP JUMPDEST SWAP2 PUSH3 0xAD1 PUSH1 0x40 MLOAD SWAP4 DUP5 PUSH3 0x91E JUMP JUMPDEST DUP3 SWAP5 DUP2 DUP5 MSTORE DUP2 DUP4 ADD GT PUSH3 0x8DF JUMPI DUP3 DUP2 PUSH1 0x20 SWAP4 DUP5 PUSH0 SWAP7 ADD CALLDATACOPY ADD ADD MSTORE JUMP INVALID PUSH1 0xE0 CALLVALUE PUSH2 0x8A JUMPI PUSH1 0x1F PUSH2 0x6CF CODESIZE DUP2 SWAP1 SUB SWAP2 DUP3 ADD PUSH1 0x1F NOT AND DUP4 ADD SWAP2 PUSH1 0x1 PUSH1 0x1 PUSH1 0x40 SHL SUB DUP4 GT DUP5 DUP5 LT OR PUSH2 0x8E JUMPI DUP1 DUP5 SWAP3 PUSH1 0x20 SWAP5 PUSH1 0x40 MSTORE DUP4 CODECOPY DUP2 ADD SUB SLT PUSH2 0x8A JUMPI MLOAD PUSH1 0x1 PUSH1 0x1 PUSH1 0xA0 SHL SUB DUP2 AND SWAP1 DUP2 DUP2 SUB PUSH2 0x8A JUMPI PUSH1 0x80 MSTORE DUP1 PUSH1 0xA0 MSTORE PUSH1 0xC0 MSTORE PUSH1 0x40 MLOAD PUSH2 0x62C SWAP1 DUP2 PUSH2 0xA3 DUP3 CODECOPY PUSH1 0x80 MLOAD DUP2 PUSH1 0x89 ADD MSTORE PUSH1 0xA0 MLOAD DUP2 PUSH2 0x28F ADD MSTORE PUSH1 0xC0 MLOAD DUP2 DUP2 DUP2 PUSH1 0xF3 ADD MSTORE PUSH2 0x2C7 ADD MSTORE RETURN JUMPDEST PUSH0 DUP1 REVERT JUMPDEST PUSH4 0x4E487B71 PUSH1 0xE0 SHL PUSH0 MSTORE PUSH1 0x41 PUSH1 0x4 MSTORE PUSH1 0x24 PUSH0 REVERT INVALID PUSH1 0x40 PUSH1 0x80 DUP2 MSTORE PUSH1 0x4 SWAP1 DUP2 CALLDATASIZE LT ISZERO PUSH2 0x2C JUMPI JUMPDEST POP POP CALLDATASIZE ISZERO PUSH2 0x1D JUMPI PUSH0 DUP1 REVERT JUMPDEST PUSH2 0x28 CALLVALUE PUSH0 SLOAD PUSH2 0x5C8 JUMP JUMPDEST PUSH0 SSTORE STOP JUMPDEST PUSH0 SWAP2 DUP3 CALLDATALOAD PUSH1 0xE0 SHR SWAP1 DUP2 PUSH4 0x3A3F161A EQ PUSH2 0x510 JUMPI DUP2 PUSH4 0x6C197FF5 EQ PUSH2 0x226 JUMPI DUP2 PUSH4 0x75172A8B EQ PUSH2 0x201 JUMPI DUP2 PUSH4 0xE60DA41D EQ PUSH2 0x1FC JUMPI DUP2 PUSH4 0xF088D547 EQ PUSH2 0xBC JUMPI POP PUSH4 0xFC0C546A SUB PUSH2 0x11 JUMPI CALLVALUE PUSH2 0xB8 JUMPI DUP2 PUSH1 0x3 NOT CALLDATASIZE ADD SLT PUSH2 0xB8 JUMPI MLOAD PUSH32 0x0 PUSH1 0x1 PUSH1 0x1 PUSH1 0xA0 SHL SUB AND DUP2 MSTORE PUSH1 0x20 SWAP1 RETURN JUMPDEST POP DUP1 REVERT JUMPDEST SWAP1 POP PUSH1 0x20 CALLDATASIZE PUSH1 0x3 NOT ADD SLT PUSH2 0x1CC JUMPI PUSH2 0xD2 PUSH2 0x531 JUMP JUMPDEST SWAP1 PUSH1 0x1 PUSH1 0x1 PUSH1 0xA0 SHL SUB DUP1 DUP4 AND ISZERO PUSH2 0x1D0 JUMPI SWAP1 DUP5 SWAP2 PUSH2 0xF1 CALLVALUE ISZERO ISZERO PUSH2 0x547 JUMP JUMPDEST PUSH32 0x0 AND DUP1 EXTCODESIZE ISZERO PUSH2 0x1CC JUMPI DUP5 MLOAD PUSH4 0x40C10F19 PUSH1 0xE0 SHL DUP2 MSTORE PUSH1 0x1 PUSH1 0x1 PUSH1 0xA0 SHL SUB SWAP1 SWAP5 AND SWAP2 DUP5 ADD SWAP2 DUP3 MSTORE CALLVALUE PUSH1 0x20 DUP4 ADD MSTORE DUP4 SWAP2 DUP3 SWAP1 DUP5 SWAP1 DUP3 SWAP1 PUSH1 0x40 ADD SUB SWAP3 GAS CALL DUP1 ISZERO PUSH2 0x1C0 JUMPI PUSH2 0x1AC JUMPI JUMPDEST POP PUSH1 0x20 SWAP2 PUSH2 0x166 CALLVALUE DUP3 SLOAD PUSH2 0x5C8 JUMP JUMPDEST SWAP1 SSTORE PUSH2 0x174 CALLVALUE PUSH1 0x1 SLOAD PUSH2 0x5C8 JUMP JUMPDEST PUSH1 0x1 SSTORE DUP1 MLOAD CALLVALUE DUP2 MSTORE CALLVALUE DUP4 DUP3 ADD MSTORE PUSH32 0xA9A40DEC7A304E5915D11358B968C1E8D365992ABF20F82285D1DF1B30C8E24C DUP3 CALLER SWAP3 LOG2 MLOAD CALLVALUE DUP2 MSTORE RETURN JUMPDEST PUSH2 0x1B6 DUP4 SWAP2 PUSH2 0x57E JUMP JUMPDEST PUSH2 0xB8 JUMPI PUSH0 PUSH2 0x157 JUMP JUMPDEST POP POP MLOAD SWAP1 RETURNDATASIZE SWAP1 DUP3 RETURNDATACOPY RETURNDATASIZE SWAP1 REVERT JUMPDEST DUP3 DUP1 REVERT JUMPDEST DUP4 MLOAD PUSH3 0x461BCD PUSH1 0xE5 SHL DUP2 MSTORE PUSH1 0x20 DUP2 DUP5 ADD MSTORE PUSH1 0x6 PUSH1 0x24 DUP3 ADD MSTORE PUSH6 0x4241445F544F PUSH1 0xD0 SHL PUSH1 0x44 DUP3 ADD MSTORE PUSH1 0x64 SWAP1 REVERT JUMPDEST PUSH2 0x510 JUMP JUMPDEST DUP3 DUP5 CALLVALUE PUSH2 0x223 JUMPI DUP1 PUSH1 0x3 NOT CALLDATASIZE ADD SLT PUSH2 0x223 JUMPI SLOAD PUSH1 0x1 SLOAD DUP3 MLOAD SWAP2 DUP3 MSTORE PUSH1 0x20 DUP3 ADD MSTORE RETURN JUMPDEST DUP1 REVERT JUMPDEST SWAP2 SWAP1 POP CALLVALUE PUSH2 0x1CC JUMPI DUP1 PUSH1 0x3 NOT CALLDATASIZE ADD SLT PUSH2 0x1CC JUMPI PUSH2 0x241 PUSH2 0x531 JUMP JUMPDEST PUSH1 0x1 PUSH1 0x1 PUSH1 0xA0 SHL SUB SWAP4 PUSH1 0x24 DUP1 CALLDATALOAD SWAP5 DUP7 DUP5 AND SWAP4 SWAP1 SWAP3 DUP5 ISZERO PUSH2 0x4E3 JUMPI PUSH2 0x266 DUP8 ISZERO ISZERO PUSH2 0x547 JUMP JUMPDEST DUP6 MLOAD SWAP8 PUSH4 0x23B872DD PUSH1 0xE0 SHL DUP10 MSTORE DUP6 DUP6 DUP11 ADD MSTORE ADDRESS DUP5 DUP11 ADD MSTORE DUP8 PUSH1 0x44 DUP11 ADD MSTORE PUSH1 0x20 SWAP9 DUP10 DUP2 PUSH1 0x64 DUP2 DUP7 DUP7 PUSH32 0x0 AND GAS CALL SWAP1 DUP2 ISZERO PUSH2 0x4D9 JUMPI DUP4 SWAP2 PUSH2 0x4A3 JUMPI JUMPDEST POP ISZERO PUSH2 0x471 JUMPI PUSH32 0x0 AND DUP1 EXTCODESIZE ISZERO PUSH2 0xB8 JUMPI DUP7 MLOAD PUSH4 0x2770A7EB PUSH1 0xE2 SHL DUP2 MSTORE ADDRESS DUP7 DUP3 ADD SWAP1 DUP2 MSTORE PUSH1 0x20 DUP2 ADD DUP11 SWAP1 MSTORE SWAP1 SWAP2 DUP4 SWAP2 DUP4 SWAP2 SWAP1 DUP3 SWAP1 DUP5 SWAP1 DUP3 SWAP1 PUSH1 0x40 ADD SUB SWAP3 GAS CALL DUP1 ISZERO PUSH2 0x467 JUMPI PUSH2 0x458 JUMPI JUMPDEST POP SWAP1 DUP7 SELFBALANCE LT ISZERO DUP1 PUSH2 0x44D JUMPI JUMPDEST ISZERO PUSH2 0x417 JUMPI DUP2 DUP1 DUP1 DUP10 DUP2 SWAP5 PUSH2 0x349 DUP3 DUP5 SLOAD PUSH2 0x5E9 JUMP JUMPDEST DUP4 SSTORE PUSH2 0x357 DUP3 PUSH1 0x1 SLOAD PUSH2 0x5E9 JUMP JUMPDEST PUSH1 0x1 SSTORE GAS CALL SWAP1 RETURNDATASIZE ISZERO PUSH2 0x411 JUMPI RETURNDATASIZE SWAP1 PUSH8 0xFFFFFFFFFFFFFFFF DUP3 GT PUSH2 0x3FF JUMPI DUP7 MLOAD SWAP2 PUSH2 0x38A PUSH1 0x1F DUP3 ADD PUSH1 0x1F NOT AND DUP12 ADD DUP5 PUSH2 0x5A6 JUMP JUMPDEST DUP3 MSTORE DUP9 RETURNDATASIZE SWAP3 ADD RETURNDATACOPY JUMPDEST ISZERO PUSH2 0x3CC JUMPI POP POP PUSH32 0xBAC9694AC0DAA55169ABD117086FE32C89401D9A3B15DD1D34E55E0AA4E47A9D DUP3 DUP1 MLOAD DUP6 DUP2 MSTORE DUP6 DUP8 DUP3 ADD MSTORE LOG2 MLOAD SWAP1 DUP2 MSTORE RETURN JUMPDEST DUP4 MLOAD PUSH3 0x461BCD PUSH1 0xE5 SHL DUP2 MSTORE SWAP2 DUP3 ADD DUP7 SWAP1 MSTORE PUSH1 0xE SWAP1 DUP3 ADD MSTORE PUSH14 0x1210905497D4D1539117D1905253 PUSH1 0x92 SHL PUSH1 0x44 DUP3 ADD MSTORE PUSH1 0x64 SWAP1 REVERT JUMPDEST PUSH4 0x4E487B71 PUSH1 0xE0 SHL DUP2 MSTORE PUSH1 0x41 DUP6 MSTORE DUP4 SWAP1 REVERT JUMPDEST POP PUSH2 0x392 JUMP JUMPDEST DUP6 MLOAD PUSH3 0x461BCD PUSH1 0xE5 SHL DUP2 MSTORE DUP1 DUP6 ADD DUP10 SWAP1 MSTORE PUSH1 0x11 DUP2 DUP6 ADD MSTORE PUSH17 0x24A729AAA32324A1A4A2A72A2FA42120A9 PUSH1 0x79 SHL PUSH1 0x44 DUP3 ADD MSTORE PUSH1 0x64 SWAP1 REVERT JUMPDEST POP DUP7 DUP3 SLOAD LT ISZERO PUSH2 0x333 JUMP JUMPDEST PUSH2 0x461 SWAP1 PUSH2 0x57E JUMP JUMPDEST PUSH0 PUSH2 0x327 JUMP JUMPDEST DUP8 MLOAD RETURNDATASIZE DUP5 DUP3 RETURNDATACOPY RETURNDATASIZE SWAP1 REVERT JUMPDEST DUP7 MLOAD PUSH3 0x461BCD PUSH1 0xE5 SHL DUP2 MSTORE DUP1 DUP7 ADD DUP11 SWAP1 MSTORE PUSH1 0xD DUP2 DUP7 ADD MSTORE PUSH13 0x1514905394D1915497D1905253 PUSH1 0x9A SHL PUSH1 0x44 DUP3 ADD MSTORE PUSH1 0x64 SWAP1 REVERT JUMPDEST SWAP1 POP DUP10 DUP2 DUP2 RETURNDATASIZE DUP4 GT PUSH2 0x4D2 JUMPI JUMPDEST PUSH2 0x4BA DUP2 DUP4 PUSH2 0x5A6 JUMP JUMPDEST DUP2 ADD SUB SLT PUSH2 0x1CC JUMPI MLOAD DUP1 ISZERO ISZERO DUP2 SUB PUSH2 0x1CC JUMPI PUSH0 PUSH2 0x2BF JUMP JUMPDEST POP RETURNDATASIZE PUSH2 0x4B0 JUMP JUMPDEST DUP9 MLOAD RETURNDATASIZE DUP6 DUP3 RETURNDATACOPY RETURNDATASIZE SWAP1 REVERT JUMPDEST DUP6 MLOAD PUSH3 0x461BCD PUSH1 0xE5 SHL DUP2 MSTORE PUSH1 0x20 DUP2 DUP7 ADD MSTORE PUSH1 0x8 DUP2 DUP6 ADD MSTORE PUSH8 0x4241445F46524F4D PUSH1 0xC0 SHL PUSH1 0x44 DUP3 ADD MSTORE PUSH1 0x64 SWAP1 REVERT JUMPDEST CALLVALUE PUSH2 0x52D JUMPI PUSH1 0x20 CALLDATASIZE PUSH1 0x3 NOT ADD SLT PUSH2 0x52D JUMPI PUSH1 0x20 PUSH1 0x40 MLOAD PUSH1 0x4 CALLDATALOAD DUP2 MSTORE RETURN JUMPDEST PUSH0 DUP1 REVERT JUMPDEST PUSH1 0x4 CALLDATALOAD SWAP1 PUSH1 0x1 PUSH1 0x1 PUSH1 0xA0 SHL SUB DUP3 AND DUP3 SUB PUSH2 0x52D JUMPI JUMP JUMPDEST ISZERO PUSH2 0x54E JUMPI JUMP JUMPDEST PUSH1 0x40 MLOAD PUSH3 0x461BCD PUSH1 0xE5 SHL DUP2 MSTORE PUSH1 0x20 PUSH1 0x4 DUP3 ADD MSTORE PUSH1 0x8 PUSH1 0x24 DUP3 ADD MSTORE PUSH8 0x1393D7D253941555 PUSH1 0xC2 SHL PUSH1 0x44 DUP3 ADD MSTORE PUSH1 0x64 SWAP1 REVERT JUMPDEST PUSH8 0xFFFFFFFFFFFFFFFF DUP2 GT PUSH2 0x592 JUMPI PUSH1 0x40 MSTORE JUMP JUMPDEST PUSH4 0x4E487B71 PUSH1 0xE0 SHL PUSH0 MSTORE PUSH1 0x41 PUSH1 0x4 MSTORE PUSH1 0x24 PUSH0 REVERT JUMPDEST SWAP1 PUSH1 0x1F DUP1 NOT SWAP2 ADD AND DUP2 ADD SWAP1 DUP2 LT PUSH8 0xFFFFFFFFFFFFFFFF DUP3 GT OR PUSH2 0x592 JUMPI PUSH1 0x40 MSTORE JUMP JUMPDEST SWAP2 SWAP1 DUP3 ADD DUP1 SWAP3 GT PUSH2 0x5D5 JUMPI JUMP JUMPDEST PUSH4 0x4E487B71 PUSH1 0xE0 SHL PUSH0 MSTORE PUSH1 0x11 PUSH1 0x4 MSTORE PUSH1 0x24 PUSH0 REVERT JUMPDEST SWAP2 SWAP1 DUP3 SUB SWAP2 DUP3 GT PUSH2 0x5D5 JUMPI JUMP INVALID LOG2 PUSH5 0x6970667358 0x22 SLT KECCAK256 JUMPI 0xD5 0xE2 SWAP12 0xB6 JUMPI CODECOPY LT ADDMOD ADDMOD 0x29 DUP10 SSTORE ORIGIN 0xD9 0xB4 NOT EXTCODEHASH DUP8 ADD SHL PC 0xE SWAP11 0x49 PUSH12 0xF498A270F0B264736F6C6343 STOP ADDMOD EQ STOP CALLER PUSH1 0x80 PUSH1 0x40 MSTORE CALLVALUE PUSH3 0x349 JUMPI PUSH3 0xD1B DUP1 CODESIZE SUB DUP1 PUSH3 0x1D DUP2 PUSH3 0x34D JUMP JUMPDEST SWAP3 DUP4 CODECOPY DUP2 ADD SWAP1 PUSH1 0x60 DUP2 DUP4 SUB SLT PUSH3 0x349 JUMPI DUP1 MLOAD PUSH1 0x1 PUSH1 0x1 PUSH1 0x40 SHL SUB SWAP1 DUP2 DUP2 GT PUSH3 0x349 JUMPI DUP4 PUSH3 0x4F SWAP2 DUP5 ADD PUSH3 0x373 JUMP JUMPDEST SWAP1 PUSH1 0x20 SWAP4 DUP5 DUP5 ADD MLOAD DUP3 DUP2 GT PUSH3 0x349 JUMPI PUSH1 0x40 SWAP2 PUSH3 0x6F SWAP2 DUP7 ADD PUSH3 0x373 JUMP JUMPDEST SWAP4 ADD MLOAD PUSH1 0x1 PUSH1 0x1 PUSH1 0xA0 SHL SUB DUP2 AND SWAP4 SWAP1 DUP5 SWAP1 SUB PUSH3 0x349 JUMPI DUP3 MLOAD SWAP1 DUP3 DUP3 GT PUSH3 0x335 JUMPI PUSH0 DUP1 SLOAD SWAP3 PUSH1 0x1 SWAP6 DUP7 DUP6 DUP2 SHR SWAP6 AND DUP1 ISZERO PUSH3 0x32A JUMPI JUMPDEST DUP10 DUP7 LT EQ PUSH3 0x316 JUMPI DUP2 SWAP1 PUSH1 0x1F SWAP6 DUP7 DUP2 GT PUSH3 0x2C3 JUMPI JUMPDEST POP DUP10 SWAP1 DUP7 DUP4 GT PUSH1 0x1 EQ PUSH3 0x260 JUMPI DUP5 SWAP3 PUSH3 0x254 JUMPI JUMPDEST POP POP PUSH0 NOT PUSH1 0x3 DUP4 SWAP1 SHL SHR NOT AND SWAP1 DUP7 SHL OR DUP2 SSTORE JUMPDEST DUP2 MLOAD SWAP4 DUP5 GT PUSH3 0x240 JUMPI DUP5 SLOAD DUP6 DUP2 DUP2 SHR SWAP2 AND DUP1 ISZERO PUSH3 0x235 JUMPI JUMPDEST DUP9 DUP3 LT EQ PUSH3 0x221 JUMPI DUP4 DUP2 GT PUSH3 0x1D9 JUMPI JUMPDEST POP DUP7 SWAP3 DUP5 GT PUSH1 0x1 EQ PUSH3 0x174 JUMPI DUP4 SWAP5 SWAP6 SWAP7 POP SWAP3 PUSH3 0x168 JUMPI JUMPDEST POP POP PUSH0 NOT PUSH1 0x3 DUP4 SWAP1 SHL SHR NOT AND SWAP1 DUP3 SHL OR SWAP1 SSTORE JUMPDEST PUSH1 0x1 DUP1 PUSH1 0xA0 SHL SUB NOT CALLER DUP2 PUSH1 0x5 SLOAD AND OR PUSH1 0x5 SSTORE PUSH1 0x6 SLOAD AND OR PUSH1 0x6 SSTORE PUSH1 0x40 MLOAD PUSH2 0x937 SWAP1 DUP2 PUSH3 0x3E4 DUP3 CODECOPY RETURN JUMPDEST ADD MLOAD SWAP1 POP PUSH0 DUP1 PUSH3 0x12B JUMP JUMPDEST SWAP2 SWAP1 PUSH1 0x1F NOT DUP5 AND SWAP7 DUP6 DUP5 MSTORE DUP1 DUP5 KECCAK256 SWAP4 SWAP1 JUMPDEST DUP9 DUP3 LT PUSH3 0x1C1 JUMPI POP POP DUP4 DUP6 SWAP7 SWAP8 LT PUSH3 0x1A8 JUMPI JUMPDEST POP POP POP DUP2 SHL ADD SWAP1 SSTORE PUSH3 0x13E JUMP JUMPDEST ADD MLOAD PUSH0 NOT PUSH1 0xF8 DUP5 PUSH1 0x3 SHL AND SHR NOT AND SWAP1 SSTORE PUSH0 DUP1 DUP1 PUSH3 0x19A JUMP JUMPDEST DUP1 DUP8 DUP6 SWAP7 DUP3 SWAP5 SWAP7 DUP7 ADD MLOAD DUP2 SSTORE ADD SWAP6 ADD SWAP4 ADD SWAP1 PUSH3 0x185 JUMP JUMPDEST DUP6 DUP3 MSTORE DUP8 DUP3 KECCAK256 DUP5 DUP1 DUP8 ADD PUSH1 0x5 SHR DUP3 ADD SWAP3 DUP11 DUP9 LT PUSH3 0x217 JUMPI JUMPDEST ADD PUSH1 0x5 SHR ADD SWAP1 DUP7 SWAP1 JUMPDEST DUP3 DUP2 LT PUSH3 0x20B JUMPI POP POP PUSH3 0x112 JUMP JUMPDEST DUP4 DUP2 SSTORE ADD DUP7 SWAP1 PUSH3 0x1FB JUMP JUMPDEST SWAP3 POP DUP2 SWAP3 PUSH3 0x1F2 JUMP JUMPDEST PUSH4 0x4E487B71 PUSH1 0xE0 SHL DUP3 MSTORE PUSH1 0x22 PUSH1 0x4 MSTORE PUSH1 0x24 DUP3 REVERT JUMPDEST SWAP1 PUSH1 0x7F AND SWAP1 PUSH3 0x100 JUMP JUMPDEST PUSH4 0x4E487B71 PUSH1 0xE0 SHL DUP2 MSTORE PUSH1 0x41 PUSH1 0x4 MSTORE PUSH1 0x24 SWAP1 REVERT JUMPDEST ADD MLOAD SWAP1 POP PUSH0 DUP1 PUSH3 0xD3 JUMP JUMPDEST DUP5 DUP1 MSTORE DUP11 DUP6 KECCAK256 DUP10 SWAP5 POP SWAP2 SWAP1 PUSH1 0x1F NOT DUP5 AND DUP7 JUMPDEST DUP14 DUP3 DUP3 LT PUSH3 0x2AC JUMPI POP POP DUP5 GT PUSH3 0x293 JUMPI JUMPDEST POP POP POP DUP2 SHL ADD DUP2 SSTORE PUSH3 0xE6 JUMP JUMPDEST ADD MLOAD PUSH0 NOT PUSH1 0xF8 DUP5 PUSH1 0x3 SHL AND SHR NOT AND SWAP1 SSTORE PUSH0 DUP1 DUP1 PUSH3 0x285 JUMP JUMPDEST DUP4 DUP6 ADD MLOAD DUP7 SSTORE DUP13 SWAP8 SWAP1 SWAP6 ADD SWAP5 SWAP4 DUP5 ADD SWAP4 ADD PUSH3 0x272 JUMP JUMPDEST SWAP1 SWAP2 POP DUP4 DUP1 MSTORE DUP10 DUP5 KECCAK256 DUP7 DUP1 DUP6 ADD PUSH1 0x5 SHR DUP3 ADD SWAP3 DUP13 DUP7 LT PUSH3 0x30C JUMPI JUMPDEST SWAP2 DUP11 SWAP2 DUP7 SWAP6 SWAP5 SWAP4 ADD PUSH1 0x5 SHR ADD SWAP2 JUMPDEST DUP3 DUP2 LT PUSH3 0x2FD JUMPI POP POP PUSH3 0xBD JUMP JUMPDEST DUP7 DUP2 SSTORE DUP6 SWAP5 POP DUP11 SWAP2 ADD PUSH3 0x2ED JUMP JUMPDEST SWAP3 POP DUP2 SWAP3 PUSH3 0x2DF JUMP JUMPDEST PUSH4 0x4E487B71 PUSH1 0xE0 SHL DUP4 MSTORE PUSH1 0x22 PUSH1 0x4 MSTORE PUSH1 0x24 DUP4 REVERT JUMPDEST SWAP5 PUSH1 0x7F AND SWAP5 PUSH3 0xA6 JUMP JUMPDEST PUSH4 0x4E487B71 PUSH1 0xE0 SHL PUSH0 MSTORE PUSH1 0x41 PUSH1 0x4 MSTORE PUSH1 0x24 PUSH0 REVERT JUMPDEST PUSH0 DUP1 REVERT JUMPDEST PUSH1 0x40 MLOAD SWAP2 SWAP1 PUSH1 0x1F ADD PUSH1 0x1F NOT AND DUP3 ADD PUSH1 0x1 PUSH1 0x1 PUSH1 0x40 SHL SUB DUP2 GT DUP4 DUP3 LT OR PUSH3 0x335 JUMPI PUSH1 0x40 MSTORE JUMP JUMPDEST SWAP2 SWAP1 DUP1 PUSH1 0x1F DUP5 ADD SLT ISZERO PUSH3 0x349 JUMPI DUP3 MLOAD PUSH1 0x1 PUSH1 0x1 PUSH1 0x40 SHL SUB DUP2 GT PUSH3 0x335 JUMPI PUSH1 0x20 SWAP1 PUSH3 0x3A9 PUSH1 0x1F DUP3 ADD PUSH1 0x1F NOT AND DUP4 ADD PUSH3 0x34D JUMP JUMPDEST SWAP3 DUP2 DUP5 MSTORE DUP3 DUP3 DUP8 ADD ADD GT PUSH3 0x349 JUMPI PUSH0 JUMPDEST DUP2 DUP2 LT PUSH3 0x3CF JUMPI POP DUP3 PUSH0 SWAP4 SWAP5 SWAP6 POP ADD ADD MSTORE SWAP1 JUMP JUMPDEST DUP6 DUP2 ADD DUP4 ADD MLOAD DUP5 DUP3 ADD DUP5 ADD MSTORE DUP3 ADD PUSH3 0x3BA JUMP INVALID PUSH1 0x80 PUSH1 0x40 DUP2 DUP2 MSTORE PUSH1 0x4 DUP1 CALLDATASIZE LT ISZERO PUSH2 0x14 JUMPI PUSH0 DUP1 REVERT JUMPDEST PUSH0 SWAP3 DUP4 CALLDATALOAD PUSH1 0xE0 SHR SWAP1 DUP2 PUSH4 0x6FDDE03 EQ PUSH2 0x5B8 JUMPI POP DUP1 PUSH4 0x7546172 EQ PUSH2 0x58F JUMPI DUP1 PUSH4 0x95EA7B3 EQ PUSH2 0x565 JUMPI DUP1 PUSH4 0x18160DDD EQ PUSH2 0x546 JUMPI DUP1 PUSH4 0x23B872DD EQ PUSH2 0x4A1 JUMPI DUP1 PUSH4 0x313CE567 EQ PUSH2 0x485 JUMPI DUP1 PUSH4 0x40C10F19 EQ PUSH2 0x3EF JUMPI DUP1 PUSH4 0x70A08231 EQ PUSH2 0x3B7 JUMPI DUP1 PUSH4 0x8DA5CB5B EQ PUSH2 0x38E JUMPI DUP1 PUSH4 0x95D89B41 EQ PUSH2 0x26D JUMPI DUP1 PUSH4 0x9DC29FAC EQ PUSH2 0x1BA JUMPI DUP1 PUSH4 0xA9059CBB EQ PUSH2 0x185 JUMPI DUP1 PUSH4 0xDD62ED3E EQ PUSH2 0x13D JUMPI PUSH4 0xFCA3B5AA EQ PUSH2 0xBA JUMPI PUSH0 DUP1 REVERT JUMPDEST CALLVALUE PUSH2 0x139 JUMPI PUSH1 0x20 CALLDATASIZE PUSH1 0x3 NOT ADD SLT PUSH2 0x139 JUMPI PUSH2 0xD3 PUSH2 0x6F2 JUMP JUMPDEST PUSH1 0x5 SLOAD PUSH1 0x1 PUSH1 0x1 PUSH1 0xA0 SHL SUB SWAP4 SWAP2 SWAP3 SWAP2 SWAP1 DUP5 AND CALLER SUB PUSH2 0x109 JUMPI POP POP AND PUSH12 0xFFFFFFFFFFFFFFFFFFFFFFFF PUSH1 0xA0 SHL PUSH1 0x6 SLOAD AND OR PUSH1 0x6 SSTORE DUP1 RETURN JUMPDEST SWAP1 PUSH1 0x20 PUSH1 0x64 SWAP3 MLOAD SWAP2 PUSH3 0x461BCD PUSH1 0xE5 SHL DUP4 MSTORE DUP3 ADD MSTORE PUSH1 0xA PUSH1 0x24 DUP3 ADD MSTORE PUSH10 0x27A7262CAFA7ABA722A9 PUSH1 0xB1 SHL PUSH1 0x44 DUP3 ADD MSTORE REVERT JUMPDEST DUP3 DUP1 REVERT JUMPDEST POP CALLVALUE PUSH2 0x139 JUMPI DUP2 PUSH1 0x3 NOT CALLDATASIZE ADD SLT PUSH2 0x139 JUMPI PUSH1 0x20 SWAP3 DUP3 SWAP2 PUSH2 0x15B PUSH2 0x6F2 JUMP JUMPDEST PUSH2 0x163 PUSH2 0x70C JUMP JUMPDEST PUSH1 0x1 PUSH1 0x1 PUSH1 0xA0 SHL SUB SWAP2 DUP3 AND DUP5 MSTORE SWAP2 DUP7 MSTORE DUP4 DUP4 KECCAK256 SWAP2 AND DUP3 MSTORE DUP5 MSTORE KECCAK256 SLOAD SWAP1 MLOAD SWAP1 DUP2 MSTORE RETURN JUMPDEST POP POP CALLVALUE PUSH2 0x1B6 JUMPI DUP1 PUSH1 0x3 NOT CALLDATASIZE ADD SLT PUSH2 0x1B6 JUMPI PUSH1 0x20 SWAP1 PUSH2 0x1AF PUSH2 0x1A5 PUSH2 0x6F2 JUMP JUMPDEST PUSH1 0x24 CALLDATALOAD SWAP1 CALLER PUSH2 0x7F2 JUMP JUMPDEST MLOAD PUSH1 0x1 DUP2 MSTORE RETURN JUMPDEST POP DUP1 REVERT JUMPDEST POP SWAP2 SWAP1 CALLVALUE PUSH2 0x1B6 JUMPI DUP1 PUSH1 0x3 NOT CALLDATASIZE ADD SLT PUSH2 0x1B6 JUMPI PUSH2 0x1D5 PUSH2 0x6F2 JUMP JUMPDEST PUSH1 0x6 SLOAD PUSH1 0x24 CALLDATALOAD SWAP2 PUSH1 0x1 PUSH1 0x1 PUSH1 0xA0 SHL SUB SWAP2 PUSH2 0x1F2 SWAP1 DUP4 AND CALLER EQ PUSH2 0x722 JUMP JUMPDEST AND SWAP2 DUP3 DUP5 MSTORE PUSH1 0x3 PUSH1 0x20 MSTORE DUP2 DUP2 DUP6 KECCAK256 SLOAD PUSH2 0x20D DUP3 DUP3 LT ISZERO PUSH2 0x792 JUMP JUMPDEST DUP5 DUP7 MSTORE PUSH1 0x3 PUSH1 0x20 MSTORE SUB DUP2 DUP6 KECCAK256 SSTORE PUSH1 0x2 SLOAD DUP3 DUP2 SUB SWAP1 DUP2 GT PUSH2 0x25A JUMPI DUP5 SWAP4 SWAP3 PUSH32 0xDDF252AD1BE2C89B69C2B068FC378DAA952BA7F163C4A11628F55A4DF523B3EF SWAP3 PUSH1 0x20 SWAP3 PUSH1 0x2 SSTORE MLOAD SWAP1 DUP2 MSTORE LOG3 DUP1 RETURN JUMPDEST PUSH4 0x4E487B71 PUSH1 0xE0 SHL DUP6 MSTORE PUSH1 0x11 DUP7 MSTORE PUSH1 0x24 DUP6 REVERT JUMPDEST POP SWAP2 SWAP1 CALLVALUE PUSH2 0x1B6 JUMPI DUP2 PUSH1 0x3 NOT CALLDATASIZE ADD SLT PUSH2 0x1B6 JUMPI DUP1 MLOAD SWAP1 DUP3 PUSH1 0x1 DUP1 SLOAD SWAP1 DUP2 DUP2 SHR SWAP1 DUP1 DUP4 AND SWAP3 DUP4 ISZERO PUSH2 0x384 JUMPI JUMPDEST PUSH1 0x20 SWAP4 DUP5 DUP5 LT DUP2 EQ PUSH2 0x371 JUMPI DUP4 DUP9 MSTORE SWAP1 DUP2 ISZERO PUSH2 0x355 JUMPI POP PUSH1 0x1 EQ PUSH2 0x300 JUMPI JUMPDEST POP POP POP DUP3 SWAP1 SUB PUSH1 0x1F ADD PUSH1 0x1F NOT AND DUP3 ADD SWAP3 PUSH8 0xFFFFFFFFFFFFFFFF DUP5 GT DUP4 DUP6 LT OR PUSH2 0x2ED JUMPI POP DUP3 SWAP2 DUP3 PUSH2 0x2E9 SWAP3 MSTORE DUP3 PUSH2 0x6AB JUMP JUMPDEST SUB SWAP1 RETURN JUMPDEST PUSH4 0x4E487B71 PUSH1 0xE0 SHL DUP2 MSTORE PUSH1 0x41 DUP6 MSTORE PUSH1 0x24 SWAP1 REVERT JUMPDEST DUP1 DUP8 MSTORE SWAP2 SWAP3 POP DUP6 SWAP2 DUP4 PUSH32 0xB10E2D527612073B26EECDFD717E6A320CF44B4AFAC2B0732D9FCBE2B7FA0CF6 JUMPDEST DUP4 DUP6 LT PUSH2 0x341 JUMPI POP POP POP POP DUP4 ADD ADD PUSH0 DUP1 DUP1 PUSH2 0x2B7 JUMP JUMPDEST DUP1 SLOAD DUP9 DUP7 ADD DUP4 ADD MSTORE SWAP4 ADD SWAP3 DUP5 SWAP1 DUP3 ADD PUSH2 0x32B JUMP JUMPDEST PUSH1 0xFF NOT AND DUP8 DUP6 ADD MSTORE POP POP ISZERO ISZERO PUSH1 0x5 SHL DUP5 ADD ADD SWAP1 POP PUSH0 DUP1 DUP1 PUSH2 0x2B7 JUMP JUMPDEST PUSH4 0x4E487B71 PUSH1 0xE0 SHL DUP10 MSTORE PUSH1 0x22 DUP11 MSTORE PUSH1 0x24 DUP10 REVERT JUMPDEST SWAP2 PUSH1 0x7F AND SWAP2 PUSH2 0x298 JUMP JUMPDEST POP POP CALLVALUE PUSH2 0x1B6 JUMPI DUP2 PUSH1 0x3 NOT CALLDATASIZE ADD SLT PUSH2 0x1B6 JUMPI PUSH1 0x5 SLOAD SWAP1 MLOAD PUSH1 0x1 PUSH1 0x1 PUSH1 0xA0 SHL SUB SWAP1 SWAP2 AND DUP2 MSTORE PUSH1 0x20 SWAP1 RETURN JUMPDEST POP POP CALLVALUE PUSH2 0x1B6 JUMPI PUSH1 0x20 CALLDATASIZE PUSH1 0x3 NOT ADD SLT PUSH2 0x1B6 JUMPI PUSH1 0x20 SWAP2 DUP2 SWAP1 PUSH1 0x1 PUSH1 0x1 PUSH1 0xA0 SHL SUB PUSH2 0x3DF PUSH2 0x6F2 JUMP JUMPDEST AND DUP2 MSTORE PUSH1 0x3 DUP5 MSTORE KECCAK256 SLOAD SWAP1 MLOAD SWAP1 DUP2 MSTORE RETURN JUMPDEST POP POP CALLVALUE PUSH2 0x1B6 JUMPI DUP1 PUSH1 0x3 NOT CALLDATASIZE ADD SLT PUSH2 0x1B6 JUMPI DUP2 PUSH32 0xDDF252AD1BE2C89B69C2B068FC378DAA952BA7F163C4A11628F55A4DF523B3EF PUSH1 0x20 PUSH2 0x42D PUSH2 0x6F2 JUMP JUMPDEST PUSH1 0x6 SLOAD PUSH1 0x24 CALLDATALOAD SWAP2 PUSH1 0x1 PUSH1 0x1 PUSH1 0xA0 SHL SUB SWAP2 PUSH2 0x44A SWAP1 DUP4 AND CALLER EQ PUSH2 0x722 JUMP JUMPDEST AND SWAP5 PUSH2 0x457 DUP7 ISZERO ISZERO PUSH2 0x75C JUMP JUMPDEST PUSH2 0x463 DUP3 PUSH1 0x2 SLOAD PUSH2 0x7D1 JUMP JUMPDEST PUSH1 0x2 SSTORE DUP6 DUP6 MSTORE PUSH1 0x3 DUP4 MSTORE DUP1 DUP6 KECCAK256 PUSH2 0x47B DUP4 DUP3 SLOAD PUSH2 0x7D1 JUMP JUMPDEST SWAP1 SSTORE MLOAD SWAP1 DUP2 MSTORE LOG3 DUP1 RETURN JUMPDEST POP POP CALLVALUE PUSH2 0x1B6 JUMPI DUP2 PUSH1 0x3 NOT CALLDATASIZE ADD SLT PUSH2 0x1B6 JUMPI PUSH1 0x20 SWAP1 MLOAD PUSH1 0x12 DUP2 MSTORE RETURN JUMPDEST POP DUP3 SWAP1 CALLVALUE PUSH2 0x1B6 JUMPI PUSH1 0x60 CALLDATASIZE PUSH1 0x3 NOT ADD SLT PUSH2 0x1B6 JUMPI PUSH2 0x4BD PUSH2 0x6F2 JUMP JUMPDEST PUSH2 0x4C5 PUSH2 0x70C JUMP JUMPDEST PUSH1 0x1 PUSH1 0x1 PUSH1 0xA0 SHL SUB DUP3 AND DUP5 MSTORE PUSH1 0x20 DUP4 DUP2 MSTORE DUP6 DUP6 KECCAK256 CALLER DUP7 MSTORE SWAP1 MSTORE SWAP3 DUP5 SWAP1 KECCAK256 SLOAD PUSH1 0x44 CALLDATALOAD SWAP4 SWAP3 DUP5 DUP3 LT PUSH2 0x50A JUMPI PUSH1 0x20 DUP7 PUSH2 0x1AF DUP8 DUP8 DUP8 PUSH2 0x505 DUP4 DUP10 SUB CALLER DUP4 PUSH2 0x873 JUMP JUMPDEST PUSH2 0x7F2 JUMP JUMPDEST PUSH1 0x64 SWAP1 PUSH1 0x20 DUP8 MLOAD SWAP2 PUSH3 0x461BCD PUSH1 0xE5 SHL DUP4 MSTORE DUP3 ADD MSTORE PUSH1 0x16 PUSH1 0x24 DUP3 ADD MSTORE PUSH22 0x494E53554646494349454E545F414C4C4F57414E4345 PUSH1 0x50 SHL PUSH1 0x44 DUP3 ADD MSTORE REVERT JUMPDEST POP POP CALLVALUE PUSH2 0x1B6 JUMPI DUP2 PUSH1 0x3 NOT CALLDATASIZE ADD SLT PUSH2 0x1B6 JUMPI PUSH1 0x20 SWAP1 PUSH1 0x2 SLOAD SWAP1 MLOAD SWAP1 DUP2 MSTORE RETURN JUMPDEST POP POP CALLVALUE PUSH2 0x1B6 JUMPI DUP1 PUSH1 0x3 NOT CALLDATASIZE ADD SLT PUSH2 0x1B6 JUMPI PUSH1 0x20 SWAP1 PUSH2 0x1AF PUSH2 0x585 PUSH2 0x6F2 JUMP JUMPDEST PUSH1 0x24 CALLDATALOAD SWAP1 CALLER PUSH2 0x873 JUMP JUMPDEST POP POP CALLVALUE PUSH2 0x1B6 JUMPI DUP2 PUSH1 0x3 NOT CALLDATASIZE ADD SLT PUSH2 0x1B6 JUMPI PUSH1 0x6 SLOAD SWAP1 MLOAD PUSH1 0x1 PUSH1 0x1 PUSH1 0xA0 SHL SUB SWAP1 SWAP2 AND DUP2 MSTORE PUSH1 0x20 SWAP1 RETURN JUMPDEST DUP5 SWAP2 POP DUP4 CALLVALUE PUSH2 0x139 JUMPI DUP3 PUSH1 0x3 NOT CALLDATASIZE ADD SLT PUSH2 0x139 JUMPI DUP3 DUP4 SLOAD PUSH1 0x1 DUP2 DUP2 SHR SWAP1 DUP1 DUP4 AND SWAP3 DUP4 ISZERO PUSH2 0x6A1 JUMPI JUMPDEST PUSH1 0x20 SWAP4 DUP5 DUP5 LT DUP2 EQ PUSH2 0x371 JUMPI DUP4 DUP9 MSTORE SWAP1 DUP2 ISZERO PUSH2 0x685 JUMPI POP PUSH1 0x1 EQ PUSH2 0x630 JUMPI POP POP POP DUP3 SWAP1 SUB PUSH1 0x1F ADD PUSH1 0x1F NOT AND DUP3 ADD SWAP3 PUSH8 0xFFFFFFFFFFFFFFFF DUP5 GT DUP4 DUP6 LT OR PUSH2 0x2ED JUMPI POP DUP3 SWAP2 DUP3 PUSH2 0x2E9 SWAP3 MSTORE DUP3 PUSH2 0x6AB JUMP JUMPDEST DUP7 DUP1 MSTORE SWAP2 SWAP3 POP DUP6 SWAP2 DUP4 PUSH32 0x290DECD9548B62A8D60345A988386FC84BA6BC95484008F6362F93160EF3E563 JUMPDEST DUP4 DUP6 LT PUSH2 0x671 JUMPI POP POP POP POP DUP4 ADD ADD DUP6 DUP1 DUP1 PUSH2 0x2B7 JUMP JUMPDEST DUP1 SLOAD DUP9 DUP7 ADD DUP4 ADD MSTORE SWAP4 ADD SWAP3 DUP5 SWAP1 DUP3 ADD PUSH2 0x65B JUMP JUMPDEST PUSH1 0xFF NOT AND DUP8 DUP6 ADD MSTORE POP POP ISZERO ISZERO PUSH1 0x5 SHL DUP5 ADD ADD SWAP1 POP DUP6 DUP1 DUP1 PUSH2 0x2B7 JUMP JUMPDEST SWAP2 PUSH1 0x7F AND SWAP2 PUSH2 0x5E0 JUMP JUMPDEST PUSH1 0x20 DUP1 DUP3 MSTORE DUP3 MLOAD DUP2 DUP4 ADD DUP2 SWAP1 MSTORE SWAP1 SWAP4 SWAP3 PUSH0 JUMPDEST DUP3 DUP2 LT PUSH2 0x6DE JUMPI POP POP PUSH1 0x40 SWAP3 SWAP4 POP PUSH0 DUP4 DUP3 DUP5 ADD ADD MSTORE PUSH1 0x1F DUP1 NOT SWAP2 ADD AND ADD ADD SWAP1 JUMP JUMPDEST DUP2 DUP2 ADD DUP7 ADD MLOAD DUP5 DUP3 ADD PUSH1 0x40 ADD MSTORE DUP6 ADD PUSH2 0x6BD JUMP JUMPDEST PUSH1 0x4 CALLDATALOAD SWAP1 PUSH1 0x1 PUSH1 0x1 PUSH1 0xA0 SHL SUB DUP3 AND DUP3 SUB PUSH2 0x708 JUMPI JUMP JUMPDEST PUSH0 DUP1 REVERT JUMPDEST PUSH1 0x24 CALLDATALOAD SWAP1 PUSH1 0x1 PUSH1 0x1 PUSH1 0xA0 SHL SUB DUP3 AND DUP3 SUB PUSH2 0x708 JUMPI JUMP JUMPDEST ISZERO PUSH2 0x729 JUMPI JUMP JUMPDEST PUSH1 0x40 MLOAD PUSH3 0x461BCD PUSH1 0xE5 SHL DUP2 MSTORE PUSH1 0x20 PUSH1 0x4 DUP3 ADD MSTORE PUSH1 0xB PUSH1 0x24 DUP3 ADD MSTORE PUSH11 0x27A7262CAFA6A4A72A22A9 PUSH1 0xA9 SHL PUSH1 0x44 DUP3 ADD MSTORE PUSH1 0x64 SWAP1 REVERT JUMPDEST ISZERO PUSH2 0x763 JUMPI JUMP JUMPDEST PUSH1 0x40 MLOAD PUSH3 0x461BCD PUSH1 0xE5 SHL DUP2 MSTORE PUSH1 0x20 PUSH1 0x4 DUP3 ADD MSTORE PUSH1 0x7 PUSH1 0x24 DUP3 ADD MSTORE PUSH7 0x5A45524F5F544F PUSH1 0xC8 SHL PUSH1 0x44 DUP3 ADD MSTORE PUSH1 0x64 SWAP1 REVERT JUMPDEST ISZERO PUSH2 0x799 JUMPI JUMP JUMPDEST PUSH1 0x40 MLOAD PUSH3 0x461BCD PUSH1 0xE5 SHL DUP2 MSTORE PUSH1 0x20 PUSH1 0x4 DUP3 ADD MSTORE PUSH1 0x10 PUSH1 0x24 DUP3 ADD MSTORE PUSH16 0x125394D551919250D251539517D09053 PUSH1 0x82 SHL PUSH1 0x44 DUP3 ADD MSTORE PUSH1 0x64 SWAP1 REVERT JUMPDEST SWAP2 SWAP1 DUP3 ADD DUP1 SWAP3 GT PUSH2 0x7DE JUMPI JUMP JUMPDEST PUSH4 0x4E487B71 PUSH1 0xE0 SHL PUSH0 MSTORE PUSH1 0x11 PUSH1 0x4 MSTORE PUSH1 0x24 PUSH0 REVERT JUMPDEST PUSH1 0x1 PUSH1 0x1 PUSH1 0xA0 SHL SUB SWAP2 DUP3 AND SWAP3 SWAP2 PUSH32 0xDDF252AD1BE2C89B69C2B068FC378DAA952BA7F163C4A11628F55A4DF523B3EF SWAP2 PUSH1 0x20 SWAP2 SWAP1 PUSH2 0x830 DUP7 ISZERO ISZERO PUSH2 0x75C JUMP JUMPDEST AND SWAP3 PUSH1 0x40 PUSH0 DUP6 DUP2 MSTORE PUSH1 0x3 DUP5 MSTORE DUP3 DUP3 DUP3 KECCAK256 SLOAD PUSH2 0x84D DUP3 DUP3 LT ISZERO PUSH2 0x792 JUMP JUMPDEST DUP8 DUP4 MSTORE PUSH1 0x3 DUP7 MSTORE SUB DUP3 DUP3 KECCAK256 SSTORE DUP7 DUP2 MSTORE KECCAK256 PUSH2 0x868 DUP3 DUP3 SLOAD PUSH2 0x7D1 JUMP JUMPDEST SWAP1 SSTORE PUSH1 0x40 MLOAD SWAP1 DUP2 MSTORE LOG3 JUMP JUMPDEST PUSH1 0x1 PUSH1 0x1 PUSH1 0xA0 SHL SUB SWAP2 DUP3 AND SWAP3 SWAP2 SWAP1 DUP4 ISZERO PUSH2 0x8CD JUMPI PUSH32 0x8C5BE1E5EBEC7D5BD14F71427D1E84F3DD0314C0F7B2291E5B200AC8C7C3B925 SWAP2 PUSH1 0x20 SWAP2 AND SWAP3 DUP4 PUSH0 MSTORE PUSH1 0x4 DUP3 MSTORE PUSH1 0x40 PUSH0 KECCAK256 DUP6 PUSH0 MSTORE DUP3 MSTORE DUP1 PUSH1 0x40 PUSH0 KECCAK256 SSTORE PUSH1 0x40 MLOAD SWAP1 DUP2 MSTORE LOG3 JUMP JUMPDEST PUSH1 0x40 MLOAD PUSH3 0x461BCD PUSH1 0xE5 SHL DUP2 MSTORE PUSH1 0x20 PUSH1 0x4 DUP3 ADD MSTORE PUSH1 0xC PUSH1 0x24 DUP3 ADD MSTORE PUSH12 0x2D22A927AFA9A822A72222A9 PUSH1 0xA1 SHL PUSH1 0x44 DUP3 ADD MSTORE PUSH1 0x64 SWAP1 REVERT INVALID LOG2 PUSH5 0x6970667358 0x22 SLT KECCAK256 0xFB 0x5E 0xE2 PUSH8 0xB74061FE4868B925 PUSH0 DUP4 SLOAD 0xE4 PUSH0 0xAF JUMP SLOAD SWAP4 CODESIZE 0x49 0x1F PUSH25 0x64919D73F87D2664736F6C63430008140033A2646970667358 0x22 SLT KECCAK256 0xE 0x4D 0x5C SWAP9 0x4E PUSH2 0xE322 0xC0 0xCB 0x29 LOG2 MOD PUSH22 0x4A1BB54E0974C3047C33477FFFC1E0F0914C64736F6C PUSH4 0x43000814 STOP CALLER "},"methodIdentifiers":{"allTokens(uint256)":"634282af","allTokensLength()":"dbb80e42","createToken(string,string,string,string,uint256)":"72397ad5","getPool(address)":"bbe4f6db","metadataOf(address)":"e194aa25","poolOf(address)":"988b1fa7"}}}}}