{"project/contracts/LaunchPadToken.sol":{"LaunchPadToken":{"abi":[{"inputs":[{"internalType":"string","name":"name_","type":"string"},{"internalType":"string","name":"symbol_","type":"string"},{"internalType":"address","name":"initialMinter","type":"address"}],"stateMutability":"nonpayable","type":"constructor"},{"anonymous":false,"inputs":[{"indexed":true,"internalType":"address","name":"owner","type":"address"},{"indexed":true,"internalType":"address","name":"spender","type":"address"},{"indexed":false,"internalType":"uint256","name":"value","type":"uint256"}],"name":"Approval","type":"event"},{"anonymous":false,"inputs":[{"indexed":true,"internalType":"address","name":"from","type":"address"},{"indexed":true,"internalType":"address","name":"to","type":"address"},{"indexed":false,"internalType":"uint256","name":"value","type":"uint256"}],"name":"Transfer","type":"event"},{"inputs":[{"internalType":"address","name":"owner_","type":"address"},{"internalType":"address","name":"spender","type":"address"}],"name":"allowance","outputs":[{"internalType":"uint256","name":"","type":"uint256"}],"stateMutability":"view","type":"function"},{"inputs":[{"internalType":"address","name":"spender","type":"address"},{"internalType":"uint256","name":"amount","type":"uint256"}],"name":"approve","outputs":[{"internalType":"bool","name":"","type":"bool"}],"stateMutability":"nonpayable","type":"function"},{"inputs":[{"internalType":"address","name":"account","type":"address"}],"name":"balanceOf","outputs":[{"internalType":"uint256","name":"","type":"uint256"}],"stateMutability":"view","type":"function"},{"inputs":[{"internalType":"address","name":"from","type":"address"},{"internalType":"uint256","name":"amount","type":"uint256"}],"name":"burn","outputs":[],"stateMutability":"nonpayable","type":"function"},{"inputs":[],"name":"decimals","outputs":[{"internalType":"uint8","name":"","type":"uint8"}],"stateMutability":"pure","type":"function"},{"inputs":[{"internalType":"address","name":"to","type":"address"},{"internalType":"uint256","name":"amount","type":"uint256"}],"name":"mint","outputs":[],"stateMutability":"nonpayable","type":"function"},{"inputs":[],"name":"minter","outputs":[{"internalType":"address","name":"","type":"address"}],"stateMutability":"view","type":"function"},{"inputs":[],"name":"name","outputs":[{"internalType":"string","name":"","type":"string"}],"stateMutability":"view","type":"function"},{"inputs":[],"name":"owner","outputs":[{"internalType":"address","name":"","type":"address"}],"stateMutability":"view","type":"function"},{"inputs":[{"internalType":"address","name":"newMinter","type":"address"}],"name":"setMinter","outputs":[],"stateMutability":"nonpayable","type":"function"},{"inputs":[],"name":"symbol","outputs":[{"internalType":"string","name":"","type":"string"}],"stateMutability":"view","type":"function"},{"inputs":[],"name":"totalSupply","outputs":[{"internalType":"uint256","name":"","type":"uint256"}],"stateMutability":"view","type":"function"},{"inputs":[{"internalType":"address","name":"to","type":"address"},{"internalType":"uint256","name":"amount","type":"uint256"}],"name":"transfer","outputs":[{"internalType":"bool","name":"","type":"bool"}],"stateMutability":"nonpayable","type":"function"},{"inputs":[{"internalType":"address","name":"from","type":"address"},{"internalType":"address","name":"to","type":"address"},{"internalType":"uint256","name":"amount","type":"uint256"}],"name":"transferFrom","outputs":[{"internalType":"bool","name":"","type":"bool"}],"stateMutability":"nonpayable","type":"function"}],"evm":{"bytecode":{"linkReferences":{},"object":"608060405234620003495762000d1b803803806200001d816200034d565b928339810190606081830312620003495780516001600160401b03908181116200034957836200004f91840162000373565b906020938484015182811162000349576040916200006f91860162000373565b9301516001600160a01b0381169390849003620003495782519082821162000335575f8054926001958685811c951680156200032a575b8986101462000316578190601f95868111620002c3575b5089908683116001146200026057849262000254575b50505f19600383901b1c191690861b1781555b8151938411620002405784548581811c9116801562000235575b888210146200022157838111620001d9575b5086928411600114620001745783949596509262000168575b50505f19600383901b1c191690821b1790555b60018060a01b03193381600554161760055560065416176006556040516109379081620003e48239f35b015190505f806200012b565b9190601f1984169685845280842093905b888210620001c15750508385969710620001a8575b505050811b0190556200013e565b01515f1960f88460031b161c191690555f80806200019a565b80878596829496860151815501950193019062000185565b8582528782208480870160051c8201928a881062000217575b0160051c019086905b8281106200020b57505062000112565b838155018690620001fb565b92508192620001f2565b634e487b7160e01b82526022600452602482fd5b90607f169062000100565b634e487b7160e01b81526041600452602490fd5b015190505f80620000d3565b8480528a85208994509190601f198416865b8d828210620002ac575050841162000293575b505050811b018155620000e6565b01515f1960f88460031b161c191690555f808062000285565b8385015186558c9790950194938401930162000272565b9091508380528984208680850160051c8201928c86106200030c575b918a91869594930160051c01915b828110620002fd575050620000bd565b8681558594508a9101620002ed565b92508192620002df565b634e487b7160e01b83526022600452602483fd5b94607f1694620000a6565b634e487b7160e01b5f52604160045260245ffd5b5f80fd5b6040519190601f01601f191682016001600160401b038111838210176200033557604052565b919080601f84011215620003495782516001600160401b0381116200033557602090620003a9601f8201601f191683016200034d565b9281845282828701011162000349575f5b818110620003cf5750825f9394955001015290565b8581018301518482018401528201620003ba56fe60806040818152600480361015610014575f80fd5b5f92833560e01c90816306fdde03146105b857508063075461721461058f578063095ea7b31461056557806318160ddd1461054657806323b872dd146104a1578063313ce5671461048557806340c10f19146103ef57806370a08231146103b75780638da5cb5b1461038e57806395d89b411461026d5780639dc29fac146101ba578063a9059cbb14610185578063dd62ed3e1461013d5763fca3b5aa146100ba575f80fd5b34610139576020366003190112610139576100d36106f2565b6005546001600160a01b03939192919084163303610109575050166bffffffffffffffffffffffff60a01b600654161760065580f35b906020606492519162461bcd60e51b8352820152600a60248201526927a7262cafa7aba722a960b11b6044820152fd5b8280fd5b5034610139578160031936011261013957602092829161015b6106f2565b61016361070c565b6001600160a01b03918216845291865283832091168252845220549051908152f35b5050346101b657806003193601126101b6576020906101af6101a56106f2565b60243590336107f2565b5160018152f35b5080fd5b509190346101b657806003193601126101b6576101d56106f2565b600654602435916001600160a01b03916101f29083163314610722565b16918284526003602052818185205461020d82821015610792565b8486526003602052038185205560025482810390811161025a578493927fddf252ad1be2c89b69c2b068fc378daa952ba7f163c4a11628f55a4df523b3ef9260209260025551908152a380f35b634e487b7160e01b855260118652602485fd5b509190346101b657816003193601126101b65780519082600180549081811c90808316928315610384575b6020938484108114610371578388529081156103555750600114610300575b505050829003601f01601f191682019267ffffffffffffffff8411838510176102ed57508291826102e99252826106ab565b0390f35b634e487b7160e01b815260418552602490fd5b8087529192508591837fb10e2d527612073b26eecdfd717e6a320cf44b4afac2b0732d9fcbe2b7fa0cf65b83851061034157505050508301015f80806102b7565b80548886018301529301928490820161032b565b60ff1916878501525050151560051b84010190505f80806102b7565b634e487b7160e01b895260228a52602489fd5b91607f1691610298565b5050346101b657816003193601126101b65760055490516001600160a01b039091168152602090f35b5050346101b65760203660031901126101b65760209181906001600160a01b036103df6106f2565b1681526003845220549051908152f35b5050346101b657806003193601126101b657817fddf252ad1be2c89b69c2b068fc378daa952ba7f163c4a11628f55a4df523b3ef602061042d6106f2565b600654602435916001600160a01b039161044a9083163314610722565b169461045786151561075c565b610463826002546107d1565b6002558585526003835280852061047b8382546107d1565b905551908152a380f35b5050346101b657816003193601126101b6576020905160128152f35b508290346101b65760603660031901126101b6576104bd6106f2565b6104c561070c565b6001600160a01b0382168452602083815285852033865290529284902054604435939284821061050a576020866101af8787876105058389033383610873565b6107f2565b606490602087519162461bcd60e51b83528201526016602482015275494e53554646494349454e545f414c4c4f57414e434560501b6044820152fd5b5050346101b657816003193601126101b6576020906002549051908152f35b5050346101b657806003193601126101b6576020906101af6105856106f2565b6024359033610873565b5050346101b657816003193601126101b65760065490516001600160a01b039091168152602090f35b8491508334610139578260031936011261013957828354600181811c908083169283156106a1575b602093848410811461037157838852908115610685575060011461063057505050829003601f01601f191682019267ffffffffffffffff8411838510176102ed57508291826102e99252826106ab565b8680529192508591837f290decd9548b62a8d60345a988386fc84ba6bc95484008f6362f93160ef3e5635b83851061067157505050508301018580806102b7565b80548886018301529301928490820161065b565b60ff1916878501525050151560051b84010190508580806102b7565b91607f16916105e0565b602080825282518183018190529093925f5b8281106106de57505060409293505f838284010152601f8019910116010190565b8181018601518482016040015285016106bd565b600435906001600160a01b038216820361070857565b5f80fd5b602435906001600160a01b038216820361070857565b1561072957565b60405162461bcd60e51b815260206004820152600b60248201526a27a7262cafa6a4a72a22a960a91b6044820152606490fd5b1561076357565b60405162461bcd60e51b81526020600482015260076024820152665a45524f5f544f60c81b6044820152606490fd5b1561079957565b60405162461bcd60e51b815260206004820152601060248201526f125394d551919250d251539517d0905360821b6044820152606490fd5b919082018092116107de57565b634e487b7160e01b5f52601160045260245ffd5b6001600160a01b0391821692917fddf252ad1be2c89b69c2b068fc378daa952ba7f163c4a11628f55a4df523b3ef916020919061083086151561075c565b169260405f85815260038452828282205461084d82821015610792565b878352600386520382822055868152206108688282546107d1565b9055604051908152a3565b6001600160a01b0391821692919083156108cd577f8c5be1e5ebec7d5bd14f71427d1e84f3dd0314c0f7b2291e5b200ac8c7c3b925916020911692835f526004825260405f20855f5282528060405f2055604051908152a3565b60405162461bcd60e51b815260206004820152600c60248201526b2d22a927afa9a822a72222a960a11b6044820152606490fdfea2646970667358221220fb5ee267b74061fe4868b9255f8354e45faf56549338491f7864919d73f87d2664736f6c63430008140033","opcodes":"PUSH1 0x80 PUSH1 0x40 MSTORE CALLVALUE PUSH3 0x349 JUMPI PUSH3 0xD1B DUP1 CODESIZE SUB DUP1 PUSH3 0x1D DUP2 PUSH3 0x34D JUMP JUMPDEST SWAP3 DUP4 CODECOPY DUP2 ADD SWAP1 PUSH1 0x60 DUP2 DUP4 SUB SLT PUSH3 0x349 JUMPI DUP1 MLOAD PUSH1 0x1 PUSH1 0x1 PUSH1 0x40 SHL SUB SWAP1 DUP2 DUP2 GT PUSH3 0x349 JUMPI DUP4 PUSH3 0x4F SWAP2 DUP5 ADD PUSH3 0x373 JUMP JUMPDEST SWAP1 PUSH1 0x20 SWAP4 DUP5 DUP5 ADD MLOAD DUP3 DUP2 GT PUSH3 0x349 JUMPI PUSH1 0x40 SWAP2 PUSH3 0x6F SWAP2 DUP7 ADD PUSH3 0x373 JUMP JUMPDEST SWAP4 ADD MLOAD PUSH1 0x1 PUSH1 0x1 PUSH1 0xA0 SHL SUB DUP2 AND SWAP4 SWAP1 DUP5 SWAP1 SUB PUSH3 0x349 JUMPI DUP3 MLOAD SWAP1 DUP3 DUP3 GT PUSH3 0x335 JUMPI PUSH0 DUP1 SLOAD SWAP3 PUSH1 0x1 SWAP6 DUP7 DUP6 DUP2 SHR SWAP6 AND DUP1 ISZERO PUSH3 0x32A JUMPI JUMPDEST DUP10 DUP7 LT EQ PUSH3 0x316 JUMPI DUP2 SWAP1 PUSH1 0x1F SWAP6 DUP7 DUP2 GT PUSH3 0x2C3 JUMPI JUMPDEST POP DUP10 SWAP1 DUP7 DUP4 GT PUSH1 0x1 EQ PUSH3 0x260 JUMPI DUP5 SWAP3 PUSH3 0x254 JUMPI JUMPDEST POP POP PUSH0 NOT PUSH1 0x3 DUP4 SWAP1 SHL SHR NOT AND SWAP1 DUP7 SHL OR DUP2 SSTORE JUMPDEST DUP2 MLOAD SWAP4 DUP5 GT PUSH3 0x240 JUMPI DUP5 SLOAD DUP6 DUP2 DUP2 SHR SWAP2 AND DUP1 ISZERO PUSH3 0x235 JUMPI JUMPDEST DUP9 DUP3 LT EQ PUSH3 0x221 JUMPI DUP4 DUP2 GT PUSH3 0x1D9 JUMPI JUMPDEST POP DUP7 SWAP3 DUP5 GT PUSH1 0x1 EQ PUSH3 0x174 JUMPI DUP4 SWAP5 SWAP6 SWAP7 POP SWAP3 PUSH3 0x168 JUMPI JUMPDEST POP POP PUSH0 NOT PUSH1 0x3 DUP4 SWAP1 SHL SHR NOT AND SWAP1 DUP3 SHL OR SWAP1 SSTORE JUMPDEST PUSH1 0x1 DUP1 PUSH1 0xA0 SHL SUB NOT CALLER DUP2 PUSH1 0x5 SLOAD AND OR PUSH1 0x5 SSTORE PUSH1 0x6 SLOAD AND OR PUSH1 0x6 SSTORE PUSH1 0x40 MLOAD PUSH2 0x937 SWAP1 DUP2 PUSH3 0x3E4 DUP3 CODECOPY RETURN JUMPDEST ADD MLOAD SWAP1 POP PUSH0 DUP1 PUSH3 0x12B JUMP JUMPDEST SWAP2 SWAP1 PUSH1 0x1F NOT DUP5 AND SWAP7 DUP6 DUP5 MSTORE DUP1 DUP5 KECCAK256 SWAP4 SWAP1 JUMPDEST DUP9 DUP3 LT PUSH3 0x1C1 JUMPI POP POP DUP4 DUP6 SWAP7 SWAP8 LT PUSH3 0x1A8 JUMPI JUMPDEST POP POP POP DUP2 SHL ADD SWAP1 SSTORE PUSH3 0x13E JUMP JUMPDEST ADD MLOAD PUSH0 NOT PUSH1 0xF8 DUP5 PUSH1 0x3 SHL AND SHR NOT AND SWAP1 SSTORE PUSH0 DUP1 DUP1 PUSH3 0x19A JUMP JUMPDEST DUP1 DUP8 DUP6 SWAP7 DUP3 SWAP5 SWAP7 DUP7 ADD MLOAD DUP2 SSTORE ADD SWAP6 ADD SWAP4 ADD SWAP1 PUSH3 0x185 JUMP JUMPDEST DUP6 DUP3 MSTORE DUP8 DUP3 KECCAK256 DUP5 DUP1 DUP8 ADD PUSH1 0x5 SHR DUP3 ADD SWAP3 DUP11 DUP9 LT PUSH3 0x217 JUMPI JUMPDEST ADD PUSH1 0x5 SHR ADD SWAP1 DUP7 SWAP1 JUMPDEST DUP3 DUP2 LT PUSH3 0x20B JUMPI POP POP PUSH3 0x112 JUMP JUMPDEST DUP4 DUP2 SSTORE ADD DUP7 SWAP1 PUSH3 0x1FB JUMP JUMPDEST SWAP3 POP DUP2 SWAP3 PUSH3 0x1F2 JUMP JUMPDEST PUSH4 0x4E487B71 PUSH1 0xE0 SHL DUP3 MSTORE PUSH1 0x22 PUSH1 0x4 MSTORE PUSH1 0x24 DUP3 REVERT JUMPDEST SWAP1 PUSH1 0x7F AND SWAP1 PUSH3 0x100 JUMP JUMPDEST PUSH4 0x4E487B71 PUSH1 0xE0 SHL DUP2 MSTORE PUSH1 0x41 PUSH1 0x4 MSTORE PUSH1 0x24 SWAP1 REVERT JUMPDEST ADD MLOAD SWAP1 POP PUSH0 DUP1 PUSH3 0xD3 JUMP JUMPDEST DUP5 DUP1 MSTORE DUP11 DUP6 KECCAK256 DUP10 SWAP5 POP SWAP2 SWAP1 PUSH1 0x1F NOT DUP5 AND DUP7 JUMPDEST DUP14 DUP3 DUP3 LT PUSH3 0x2AC JUMPI POP POP DUP5 GT PUSH3 0x293 JUMPI JUMPDEST POP POP POP DUP2 SHL ADD DUP2 SSTORE PUSH3 0xE6 JUMP JUMPDEST ADD MLOAD PUSH0 NOT PUSH1 0xF8 DUP5 PUSH1 0x3 SHL AND SHR NOT AND SWAP1 SSTORE PUSH0 DUP1 DUP1 PUSH3 0x285 JUMP JUMPDEST DUP4 DUP6 ADD MLOAD DUP7 SSTORE DUP13 SWAP8 SWAP1 SWAP6 ADD SWAP5 SWAP4 DUP5 ADD SWAP4 ADD PUSH3 0x272 JUMP JUMPDEST SWAP1 SWAP2 POP DUP4 DUP1 MSTORE DUP10 DUP5 KECCAK256 DUP7 DUP1 DUP6 ADD PUSH1 0x5 SHR DUP3 ADD SWAP3 DUP13 DUP7 LT PUSH3 0x30C JUMPI JUMPDEST SWAP2 DUP11 SWAP2 DUP7 SWAP6 SWAP5 SWAP4 ADD PUSH1 0x5 SHR ADD SWAP2 JUMPDEST DUP3 DUP2 LT PUSH3 0x2FD JUMPI POP POP PUSH3 0xBD JUMP JUMPDEST DUP7 DUP2 SSTORE DUP6 SWAP5 POP DUP11 SWAP2 ADD PUSH3 0x2ED JUMP JUMPDEST SWAP3 POP DUP2 SWAP3 PUSH3 0x2DF JUMP JUMPDEST PUSH4 0x4E487B71 PUSH1 0xE0 SHL DUP4 MSTORE PUSH1 0x22 PUSH1 0x4 MSTORE PUSH1 0x24 DUP4 REVERT JUMPDEST SWAP5 PUSH1 0x7F AND SWAP5 PUSH3 0xA6 JUMP JUMPDEST PUSH4 0x4E487B71 PUSH1 0xE0 SHL PUSH0 MSTORE PUSH1 0x41 PUSH1 0x4 MSTORE PUSH1 0x24 PUSH0 REVERT JUMPDEST PUSH0 DUP1 REVERT JUMPDEST PUSH1 0x40 MLOAD SWAP2 SWAP1 PUSH1 0x1F ADD PUSH1 0x1F NOT AND DUP3 ADD PUSH1 0x1 PUSH1 0x1 PUSH1 0x40 SHL SUB DUP2 GT DUP4 DUP3 LT OR PUSH3 0x335 JUMPI PUSH1 0x40 MSTORE JUMP JUMPDEST SWAP2 SWAP1 DUP1 PUSH1 0x1F DUP5 ADD SLT ISZERO PUSH3 0x349 JUMPI DUP3 MLOAD PUSH1 0x1 PUSH1 0x1 PUSH1 0x40 SHL SUB DUP2 GT PUSH3 0x335 JUMPI PUSH1 0x20 SWAP1 PUSH3 0x3A9 PUSH1 0x1F DUP3 ADD PUSH1 0x1F NOT AND DUP4 ADD PUSH3 0x34D JUMP JUMPDEST SWAP3 DUP2 DUP5 MSTORE DUP3 DUP3 DUP8 ADD ADD GT PUSH3 0x349 JUMPI PUSH0 JUMPDEST DUP2 DUP2 LT PUSH3 0x3CF JUMPI POP DUP3 PUSH0 SWAP4 SWAP5 SWAP6 POP ADD ADD MSTORE SWAP1 JUMP JUMPDEST DUP6 DUP2 ADD DUP4 ADD MLOAD DUP5 DUP3 ADD DUP5 ADD MSTORE DUP3 ADD PUSH3 0x3BA JUMP INVALID PUSH1 0x80 PUSH1 0x40 DUP2 DUP2 MSTORE PUSH1 0x4 DUP1 CALLDATASIZE LT ISZERO PUSH2 0x14 JUMPI PUSH0 DUP1 REVERT JUMPDEST PUSH0 SWAP3 DUP4 CALLDATALOAD PUSH1 0xE0 SHR SWAP1 DUP2 PUSH4 0x6FDDE03 EQ PUSH2 0x5B8 JUMPI POP DUP1 PUSH4 0x7546172 EQ PUSH2 0x58F JUMPI DUP1 PUSH4 0x95EA7B3 EQ PUSH2 0x565 JUMPI DUP1 PUSH4 0x18160DDD EQ PUSH2 0x546 JUMPI DUP1 PUSH4 0x23B872DD EQ PUSH2 0x4A1 JUMPI DUP1 PUSH4 0x313CE567 EQ PUSH2 0x485 JUMPI DUP1 PUSH4 0x40C10F19 EQ PUSH2 0x3EF JUMPI DUP1 PUSH4 0x70A08231 EQ PUSH2 0x3B7 JUMPI DUP1 PUSH4 0x8DA5CB5B EQ PUSH2 0x38E JUMPI DUP1 PUSH4 0x95D89B41 EQ PUSH2 0x26D JUMPI DUP1 PUSH4 0x9DC29FAC EQ PUSH2 0x1BA JUMPI DUP1 PUSH4 0xA9059CBB EQ PUSH2 0x185 JUMPI DUP1 PUSH4 0xDD62ED3E EQ PUSH2 0x13D JUMPI PUSH4 0xFCA3B5AA EQ PUSH2 0xBA JUMPI PUSH0 DUP1 REVERT JUMPDEST CALLVALUE PUSH2 0x139 JUMPI PUSH1 0x20 CALLDATASIZE PUSH1 0x3 NOT ADD SLT PUSH2 0x139 JUMPI PUSH2 0xD3 PUSH2 0x6F2 JUMP JUMPDEST PUSH1 0x5 SLOAD PUSH1 0x1 PUSH1 0x1 PUSH1 0xA0 SHL SUB SWAP4 SWAP2 SWAP3 SWAP2 SWAP1 DUP5 AND CALLER SUB PUSH2 0x109 JUMPI POP POP AND PUSH12 0xFFFFFFFFFFFFFFFFFFFFFFFF PUSH1 0xA0 SHL PUSH1 0x6 SLOAD AND OR PUSH1 0x6 SSTORE DUP1 RETURN JUMPDEST SWAP1 PUSH1 0x20 PUSH1 0x64 SWAP3 MLOAD SWAP2 PUSH3 0x461BCD PUSH1 0xE5 SHL DUP4 MSTORE DUP3 ADD MSTORE PUSH1 0xA PUSH1 0x24 DUP3 ADD MSTORE PUSH10 0x27A7262CAFA7ABA722A9 PUSH1 0xB1 SHL PUSH1 0x44 DUP3 ADD MSTORE REVERT JUMPDEST DUP3 DUP1 REVERT JUMPDEST POP CALLVALUE PUSH2 0x139 JUMPI DUP2 PUSH1 0x3 NOT CALLDATASIZE ADD SLT PUSH2 0x139 JUMPI PUSH1 0x20 SWAP3 DUP3 SWAP2 PUSH2 0x15B PUSH2 0x6F2 JUMP JUMPDEST PUSH2 0x163 PUSH2 0x70C JUMP JUMPDEST PUSH1 0x1 PUSH1 0x1 PUSH1 0xA0 SHL SUB SWAP2 DUP3 AND DUP5 MSTORE SWAP2 DUP7 MSTORE DUP4 DUP4 KECCAK256 SWAP2 AND DUP3 MSTORE DUP5 MSTORE KECCAK256 SLOAD SWAP1 MLOAD SWAP1 DUP2 MSTORE RETURN JUMPDEST POP POP CALLVALUE PUSH2 0x1B6 JUMPI DUP1 PUSH1 0x3 NOT CALLDATASIZE ADD SLT PUSH2 0x1B6 JUMPI PUSH1 0x20 SWAP1 PUSH2 0x1AF PUSH2 0x1A5 PUSH2 0x6F2 JUMP JUMPDEST PUSH1 0x24 CALLDATALOAD SWAP1 CALLER PUSH2 0x7F2 JUMP JUMPDEST MLOAD PUSH1 0x1 DUP2 MSTORE RETURN JUMPDEST POP DUP1 REVERT JUMPDEST POP SWAP2 SWAP1 CALLVALUE PUSH2 0x1B6 JUMPI DUP1 PUSH1 0x3 NOT CALLDATASIZE ADD SLT PUSH2 0x1B6 JUMPI PUSH2 0x1D5 PUSH2 0x6F2 JUMP JUMPDEST PUSH1 0x6 SLOAD PUSH1 0x24 CALLDATALOAD SWAP2 PUSH1 0x1 PUSH1 0x1 PUSH1 0xA0 SHL SUB SWAP2 PUSH2 0x1F2 SWAP1 DUP4 AND CALLER EQ PUSH2 0x722 JUMP JUMPDEST AND SWAP2 DUP3 DUP5 MSTORE PUSH1 0x3 PUSH1 0x20 MSTORE DUP2 DUP2 DUP6 KECCAK256 SLOAD PUSH2 0x20D DUP3 DUP3 LT ISZERO PUSH2 0x792 JUMP JUMPDEST DUP5 DUP7 MSTORE PUSH1 0x3 PUSH1 0x20 MSTORE SUB DUP2 DUP6 KECCAK256 SSTORE PUSH1 0x2 SLOAD DUP3 DUP2 SUB SWAP1 DUP2 GT PUSH2 0x25A JUMPI DUP5 SWAP4 SWAP3 PUSH32 0xDDF252AD1BE2C89B69C2B068FC378DAA952BA7F163C4A11628F55A4DF523B3EF SWAP3 PUSH1 0x20 SWAP3 PUSH1 0x2 SSTORE MLOAD SWAP1 DUP2 MSTORE LOG3 DUP1 RETURN JUMPDEST PUSH4 0x4E487B71 PUSH1 0xE0 SHL DUP6 MSTORE PUSH1 0x11 DUP7 MSTORE PUSH1 0x24 DUP6 REVERT JUMPDEST POP SWAP2 SWAP1 CALLVALUE PUSH2 0x1B6 JUMPI DUP2 PUSH1 0x3 NOT CALLDATASIZE ADD SLT PUSH2 0x1B6 JUMPI DUP1 MLOAD SWAP1 DUP3 PUSH1 0x1 DUP1 SLOAD SWAP1 DUP2 DUP2 SHR SWAP1 DUP1 DUP4 AND SWAP3 DUP4 ISZERO PUSH2 0x384 JUMPI JUMPDEST PUSH1 0x20 SWAP4 DUP5 DUP5 LT DUP2 EQ PUSH2 0x371 JUMPI DUP4 DUP9 MSTORE SWAP1 DUP2 ISZERO PUSH2 0x355 JUMPI POP PUSH1 0x1 EQ PUSH2 0x300 JUMPI JUMPDEST POP POP POP DUP3 SWAP1 SUB PUSH1 0x1F ADD PUSH1 0x1F NOT AND DUP3 ADD SWAP3 PUSH8 0xFFFFFFFFFFFFFFFF DUP5 GT DUP4 DUP6 LT OR PUSH2 0x2ED JUMPI POP DUP3 SWAP2 DUP3 PUSH2 0x2E9 SWAP3 MSTORE DUP3 PUSH2 0x6AB JUMP JUMPDEST SUB SWAP1 RETURN JUMPDEST PUSH4 0x4E487B71 PUSH1 0xE0 SHL DUP2 MSTORE PUSH1 0x41 DUP6 MSTORE PUSH1 0x24 SWAP1 REVERT JUMPDEST DUP1 DUP8 MSTORE SWAP2 SWAP3 POP DUP6 SWAP2 DUP4 PUSH32 0xB10E2D527612073B26EECDFD717E6A320CF44B4AFAC2B0732D9FCBE2B7FA0CF6 JUMPDEST DUP4 DUP6 LT PUSH2 0x341 JUMPI POP POP POP POP DUP4 ADD ADD PUSH0 DUP1 DUP1 PUSH2 0x2B7 JUMP JUMPDEST DUP1 SLOAD DUP9 DUP7 ADD DUP4 ADD MSTORE SWAP4 ADD SWAP3 DUP5 SWAP1 DUP3 ADD PUSH2 0x32B JUMP JUMPDEST PUSH1 0xFF NOT AND DUP8 DUP6 ADD MSTORE POP POP ISZERO ISZERO PUSH1 0x5 SHL DUP5 ADD ADD SWAP1 POP PUSH0 DUP1 DUP1 PUSH2 0x2B7 JUMP JUMPDEST PUSH4 0x4E487B71 PUSH1 0xE0 SHL DUP10 MSTORE PUSH1 0x22 DUP11 MSTORE PUSH1 0x24 DUP10 REVERT JUMPDEST SWAP2 PUSH1 0x7F AND SWAP2 PUSH2 0x298 JUMP JUMPDEST POP POP CALLVALUE PUSH2 0x1B6 JUMPI DUP2 PUSH1 0x3 NOT CALLDATASIZE ADD SLT PUSH2 0x1B6 JUMPI PUSH1 0x5 SLOAD SWAP1 MLOAD PUSH1 0x1 PUSH1 0x1 PUSH1 0xA0 SHL SUB SWAP1 SWAP2 AND DUP2 MSTORE PUSH1 0x20 SWAP1 RETURN JUMPDEST POP POP CALLVALUE PUSH2 0x1B6 JUMPI PUSH1 0x20 CALLDATASIZE PUSH1 0x3 NOT ADD SLT PUSH2 0x1B6 JUMPI PUSH1 0x20 SWAP2 DUP2 SWAP1 PUSH1 0x1 PUSH1 0x1 PUSH1 0xA0 SHL SUB PUSH2 0x3DF PUSH2 0x6F2 JUMP JUMPDEST AND DUP2 MSTORE PUSH1 0x3 DUP5 MSTORE KECCAK256 SLOAD SWAP1 MLOAD SWAP1 DUP2 MSTORE RETURN JUMPDEST POP POP CALLVALUE PUSH2 0x1B6 JUMPI DUP1 PUSH1 0x3 NOT CALLDATASIZE ADD SLT PUSH2 0x1B6 JUMPI DUP2 PUSH32 0xDDF252AD1BE2C89B69C2B068FC378DAA952BA7F163C4A11628F55A4DF523B3EF PUSH1 0x20 PUSH2 0x42D PUSH2 0x6F2 JUMP JUMPDEST PUSH1 0x6 SLOAD PUSH1 0x24 CALLDATALOAD SWAP2 PUSH1 0x1 PUSH1 0x1 PUSH1 0xA0 SHL SUB SWAP2 PUSH2 0x44A SWAP1 DUP4 AND CALLER EQ PUSH2 0x722 JUMP JUMPDEST AND SWAP5 PUSH2 0x457 DUP7 ISZERO ISZERO PUSH2 0x75C JUMP JUMPDEST PUSH2 0x463 DUP3 PUSH1 0x2 SLOAD PUSH2 0x7D1 JUMP JUMPDEST PUSH1 0x2 SSTORE DUP6 DUP6 MSTORE PUSH1 0x3 DUP4 MSTORE DUP1 DUP6 KECCAK256 PUSH2 0x47B DUP4 DUP3 SLOAD PUSH2 0x7D1 JUMP JUMPDEST SWAP1 SSTORE MLOAD SWAP1 DUP2 MSTORE LOG3 DUP1 RETURN JUMPDEST POP POP CALLVALUE PUSH2 0x1B6 JUMPI DUP2 PUSH1 0x3 NOT CALLDATASIZE ADD SLT PUSH2 0x1B6 JUMPI PUSH1 0x20 SWAP1 MLOAD PUSH1 0x12 DUP2 MSTORE RETURN JUMPDEST POP DUP3 SWAP1 CALLVALUE PUSH2 0x1B6 JUMPI PUSH1 0x60 CALLDATASIZE PUSH1 0x3 NOT ADD SLT PUSH2 0x1B6 JUMPI PUSH2 0x4BD PUSH2 0x6F2 JUMP JUMPDEST PUSH2 0x4C5 PUSH2 0x70C JUMP JUMPDEST PUSH1 0x1 PUSH1 0x1 PUSH1 0xA0 SHL SUB DUP3 AND DUP5 MSTORE PUSH1 0x20 DUP4 DUP2 MSTORE DUP6 DUP6 KECCAK256 CALLER DUP7 MSTORE SWAP1 MSTORE SWAP3 DUP5 SWAP1 KECCAK256 SLOAD PUSH1 0x44 CALLDATALOAD SWAP4 SWAP3 DUP5 DUP3 LT PUSH2 0x50A JUMPI PUSH1 0x20 DUP7 PUSH2 0x1AF DUP8 DUP8 DUP8 PUSH2 0x505 DUP4 DUP10 SUB CALLER DUP4 PUSH2 0x873 JUMP JUMPDEST PUSH2 0x7F2 JUMP JUMPDEST PUSH1 0x64 SWAP1 PUSH1 0x20 DUP8 MLOAD SWAP2 PUSH3 0x461BCD PUSH1 0xE5 SHL DUP4 MSTORE DUP3 ADD MSTORE PUSH1 0x16 PUSH1 0x24 DUP3 ADD MSTORE PUSH22 0x494E53554646494349454E545F414C4C4F57414E4345 PUSH1 0x50 SHL PUSH1 0x44 DUP3 ADD MSTORE REVERT JUMPDEST POP POP CALLVALUE PUSH2 0x1B6 JUMPI DUP2 PUSH1 0x3 NOT CALLDATASIZE ADD SLT PUSH2 0x1B6 JUMPI PUSH1 0x20 SWAP1 PUSH1 0x2 SLOAD SWAP1 MLOAD SWAP1 DUP2 MSTORE RETURN JUMPDEST POP POP CALLVALUE PUSH2 0x1B6 JUMPI DUP1 PUSH1 0x3 NOT CALLDATASIZE ADD SLT PUSH2 0x1B6 JUMPI PUSH1 0x20 SWAP1 PUSH2 0x1AF PUSH2 0x585 PUSH2 0x6F2 JUMP JUMPDEST PUSH1 0x24 CALLDATALOAD SWAP1 CALLER PUSH2 0x873 JUMP JUMPDEST POP POP CALLVALUE PUSH2 0x1B6 JUMPI DUP2 PUSH1 0x3 NOT CALLDATASIZE ADD SLT PUSH2 0x1B6 JUMPI PUSH1 0x6 SLOAD SWAP1 MLOAD PUSH1 0x1 PUSH1 0x1 PUSH1 0xA0 SHL SUB SWAP1 SWAP2 AND DUP2 MSTORE PUSH1 0x20 SWAP1 RETURN JUMPDEST DUP5 SWAP2 POP DUP4 CALLVALUE PUSH2 0x139 JUMPI DUP3 PUSH1 0x3 NOT CALLDATASIZE ADD SLT PUSH2 0x139 JUMPI DUP3 DUP4 SLOAD PUSH1 0x1 DUP2 DUP2 SHR SWAP1 DUP1 DUP4 AND SWAP3 DUP4 ISZERO PUSH2 0x6A1 JUMPI JUMPDEST PUSH1 0x20 SWAP4 DUP5 DUP5 LT DUP2 EQ PUSH2 0x371 JUMPI DUP4 DUP9 MSTORE SWAP1 DUP2 ISZERO PUSH2 0x685 JUMPI POP PUSH1 0x1 EQ PUSH2 0x630 JUMPI POP POP POP DUP3 SWAP1 SUB PUSH1 0x1F ADD PUSH1 0x1F NOT AND DUP3 ADD SWAP3 PUSH8 0xFFFFFFFFFFFFFFFF DUP5 GT DUP4 DUP6 LT OR PUSH2 0x2ED JUMPI POP DUP3 SWAP2 DUP3 PUSH2 0x2E9 SWAP3 MSTORE DUP3 PUSH2 0x6AB JUMP JUMPDEST DUP7 DUP1 MSTORE SWAP2 SWAP3 POP DUP6 SWAP2 DUP4 PUSH32 0x290DECD9548B62A8D60345A988386FC84BA6BC95484008F6362F93160EF3E563 JUMPDEST DUP4 DUP6 LT PUSH2 0x671 JUMPI POP POP POP POP DUP4 ADD ADD DUP6 DUP1 DUP1 PUSH2 0x2B7 JUMP JUMPDEST DUP1 SLOAD DUP9 DUP7 ADD DUP4 ADD MSTORE SWAP4 ADD SWAP3 DUP5 SWAP1 DUP3 ADD PUSH2 0x65B JUMP JUMPDEST PUSH1 0xFF NOT AND DUP8 DUP6 ADD MSTORE POP POP ISZERO ISZERO PUSH1 0x5 SHL DUP5 ADD ADD SWAP1 POP DUP6 DUP1 DUP1 PUSH2 0x2B7 JUMP JUMPDEST SWAP2 PUSH1 0x7F AND SWAP2 PUSH2 0x5E0 JUMP JUMPDEST PUSH1 0x20 DUP1 DUP3 MSTORE DUP3 MLOAD DUP2 DUP4 ADD DUP2 SWAP1 MSTORE SWAP1 SWAP4 SWAP3 PUSH0 JUMPDEST DUP3 DUP2 LT PUSH2 0x6DE JUMPI POP POP PUSH1 0x40 SWAP3 SWAP4 POP PUSH0 DUP4 DUP3 DUP5 ADD ADD MSTORE PUSH1 0x1F DUP1 NOT SWAP2 ADD AND ADD ADD SWAP1 JUMP JUMPDEST DUP2 DUP2 ADD DUP7 ADD MLOAD DUP5 DUP3 ADD PUSH1 0x40 ADD MSTORE DUP6 ADD PUSH2 0x6BD JUMP JUMPDEST PUSH1 0x4 CALLDATALOAD SWAP1 PUSH1 0x1 PUSH1 0x1 PUSH1 0xA0 SHL SUB DUP3 AND DUP3 SUB PUSH2 0x708 JUMPI JUMP JUMPDEST PUSH0 DUP1 REVERT JUMPDEST PUSH1 0x24 CALLDATALOAD SWAP1 PUSH1 0x1 PUSH1 0x1 PUSH1 0xA0 SHL SUB DUP3 AND DUP3 SUB PUSH2 0x708 JUMPI JUMP JUMPDEST ISZERO PUSH2 0x729 JUMPI JUMP JUMPDEST PUSH1 0x40 MLOAD PUSH3 0x461BCD PUSH1 0xE5 SHL DUP2 MSTORE PUSH1 0x20 PUSH1 0x4 DUP3 ADD MSTORE PUSH1 0xB PUSH1 0x24 DUP3 ADD MSTORE PUSH11 0x27A7262CAFA6A4A72A22A9 PUSH1 0xA9 SHL PUSH1 0x44 DUP3 ADD MSTORE PUSH1 0x64 SWAP1 REVERT JUMPDEST ISZERO PUSH2 0x763 JUMPI JUMP JUMPDEST PUSH1 0x40 MLOAD PUSH3 0x461BCD PUSH1 0xE5 SHL DUP2 MSTORE PUSH1 0x20 PUSH1 0x4 DUP3 ADD MSTORE PUSH1 0x7 PUSH1 0x24 DUP3 ADD MSTORE PUSH7 0x5A45524F5F544F PUSH1 0xC8 SHL PUSH1 0x44 DUP3 ADD MSTORE PUSH1 0x64 SWAP1 REVERT JUMPDEST ISZERO PUSH2 0x799 JUMPI JUMP JUMPDEST PUSH1 0x40 MLOAD PUSH3 0x461BCD PUSH1 0xE5 SHL DUP2 MSTORE PUSH1 0x20 PUSH1 0x4 DUP3 ADD MSTORE PUSH1 0x10 PUSH1 0x24 DUP3 ADD MSTORE PUSH16 0x125394D551919250D251539517D09053 PUSH1 0x82 SHL PUSH1 0x44 DUP3 ADD MSTORE PUSH1 0x64 SWAP1 REVERT JUMPDEST SWAP2 SWAP1 DUP3 ADD DUP1 SWAP3 GT PUSH2 0x7DE JUMPI JUMP JUMPDEST PUSH4 0x4E487B71 PUSH1 0xE0 SHL PUSH0 MSTORE PUSH1 0x11 PUSH1 0x4 MSTORE PUSH1 0x24 PUSH0 REVERT JUMPDEST PUSH1 0x1 PUSH1 0x1 PUSH1 0xA0 SHL SUB SWAP2 DUP3 AND SWAP3 SWAP2 PUSH32 0xDDF252AD1BE2C89B69C2B068FC378DAA952BA7F163C4A11628F55A4DF523B3EF SWAP2 PUSH1 0x20 SWAP2 SWAP1 PUSH2 0x830 DUP7 ISZERO ISZERO PUSH2 0x75C JUMP JUMPDEST AND SWAP3 PUSH1 0x40 PUSH0 DUP6 DUP2 MSTORE PUSH1 0x3 DUP5 MSTORE DUP3 DUP3 DUP3 KECCAK256 SLOAD PUSH2 0x84D DUP3 DUP3 LT ISZERO PUSH2 0x792 JUMP JUMPDEST DUP8 DUP4 MSTORE PUSH1 0x3 DUP7 MSTORE SUB DUP3 DUP3 KECCAK256 SSTORE DUP7 DUP2 MSTORE KECCAK256 PUSH2 0x868 DUP3 DUP3 SLOAD PUSH2 0x7D1 JUMP JUMPDEST SWAP1 SSTORE PUSH1 0x40 MLOAD SWAP1 DUP2 MSTORE LOG3 JUMP JUMPDEST PUSH1 0x1 PUSH1 0x1 PUSH1 0xA0 SHL SUB SWAP2 DUP3 AND SWAP3 SWAP2 SWAP1 DUP4 ISZERO PUSH2 0x8CD JUMPI PUSH32 0x8C5BE1E5EBEC7D5BD14F71427D1E84F3DD0314C0F7B2291E5B200AC8C7C3B925 SWAP2 PUSH1 0x20 SWAP2 AND SWAP3 DUP4 PUSH0 MSTORE PUSH1 0x4 DUP3 MSTORE PUSH1 0x40 PUSH0 KECCAK256 DUP6 PUSH0 MSTORE DUP3 MSTORE DUP1 PUSH1 0x40 PUSH0 KECCAK256 SSTORE PUSH1 0x40 MLOAD SWAP1 DUP2 MSTORE LOG3 JUMP JUMPDEST PUSH1 0x40 MLOAD PUSH3 0x461BCD PUSH1 0xE5 SHL DUP2 MSTORE PUSH1 0x20 PUSH1 0x4 DUP3 ADD MSTORE PUSH1 0xC PUSH1 0x24 DUP3 ADD MSTORE PUSH12 0x2D22A927AFA9A822A72222A9 PUSH1 0xA1 SHL PUSH1 0x44 DUP3 ADD MSTORE PUSH1 0x64 SWAP1 REVERT INVALID LOG2 PUSH5 0x6970667358 0x22 SLT KECCAK256 0xFB 0x5E 0xE2 PUSH8 0xB74061FE4868B925 PUSH0 DUP4 SLOAD 0xE4 PUSH0 0xAF JUMP SLOAD SWAP4 CODESIZE 0x49 0x1F PUSH25 0x64919D73F87D2664736F6C6343000814003300000000000000 "},"methodIdentifiers":{"allowance(address,address)":"dd62ed3e","approve(address,uint256)":"095ea7b3","balanceOf(address)":"70a08231","burn(address,uint256)":"9dc29fac","decimals()":"313ce567","mint(address,uint256)":"40c10f19","minter()":"07546172","name()":"06fdde03","owner()":"8da5cb5b","setMinter(address)":"fca3b5aa","symbol()":"95d89b41","totalSupply()":"18160ddd","transfer(address,uint256)":"a9059cbb","transferFrom(address,address,uint256)":"23b872dd"}}}}}