{
  "_format": "hh3-artifact-1",
  "contractName": "BondingCurvePool",
  "sourceName": "contracts/BondingCurvePool.sol",
  "abi": [
    {
      "inputs": [
        {
          "internalType": "address",
          "name": "token_",
          "type": "address"
        }
      ],
      "stateMutability": "nonpayable",
      "type": "constructor"
    },
    {
      "anonymous": false,
      "inputs": [
        {
          "indexed": true,
          "internalType": "address",
          "name": "buyer",
          "type": "address"
        },
        {
          "indexed": false,
          "internalType": "uint256",
          "name": "hbarInWei",
          "type": "uint256"
        },
        {
          "indexed": false,
          "internalType": "uint256",
          "name": "tokensOut",
          "type": "uint256"
        }
      ],
      "name": "Bought",
      "type": "event"
    },
    {
      "anonymous": false,
      "inputs": [
        {
          "indexed": true,
          "internalType": "address",
          "name": "seller",
          "type": "address"
        },
        {
          "indexed": false,
          "internalType": "uint256",
          "name": "tokensIn",
          "type": "uint256"
        },
        {
          "indexed": false,
          "internalType": "uint256",
          "name": "hbarOutWei",
          "type": "uint256"
        }
      ],
      "name": "Sold",
      "type": "event"
    },
    {
      "inputs": [
        {
          "internalType": "address",
          "name": "to",
          "type": "address"
        }
      ],
      "name": "buy",
      "outputs": [
        {
          "internalType": "uint256",
          "name": "tokensOut",
          "type": "uint256"
        }
      ],
      "stateMutability": "payable",
      "type": "function"
    },
    {
      "inputs": [],
      "name": "feeBps",
      "outputs": [
        {
          "internalType": "uint16",
          "name": "",
          "type": "uint16"
        }
      ],
      "stateMutability": "view",
      "type": "function"
    },
    {
      "inputs": [
        {
          "internalType": "uint256",
          "name": "hbarInWei",
          "type": "uint256"
        }
      ],
      "name": "getPriceForBuy",
      "outputs": [
        {
          "internalType": "uint256",
          "name": "tokensOut",
          "type": "uint256"
        }
      ],
      "stateMutability": "view",
      "type": "function"
    },
    {
      "inputs": [
        {
          "internalType": "uint256",
          "name": "tokensIn",
          "type": "uint256"
        }
      ],
      "name": "getPriceForSell",
      "outputs": [
        {
          "internalType": "uint256",
          "name": "hbarOutWei",
          "type": "uint256"
        }
      ],
      "stateMutability": "view",
      "type": "function"
    },
    {
      "inputs": [],
      "name": "owner",
      "outputs": [
        {
          "internalType": "address",
          "name": "",
          "type": "address"
        }
      ],
      "stateMutability": "view",
      "type": "function"
    },
    {
      "inputs": [],
      "name": "reserves",
      "outputs": [
        {
          "internalType": "uint256",
          "name": "hbarReserves",
          "type": "uint256"
        },
        {
          "internalType": "uint256",
          "name": "tokenReserves",
          "type": "uint256"
        }
      ],
      "stateMutability": "view",
      "type": "function"
    },
    {
      "inputs": [
        {
          "internalType": "address",
          "name": "from",
          "type": "address"
        },
        {
          "internalType": "uint256",
          "name": "tokensIn",
          "type": "uint256"
        }
      ],
      "name": "sell",
      "outputs": [
        {
          "internalType": "uint256",
          "name": "hbarOutWei",
          "type": "uint256"
        }
      ],
      "stateMutability": "nonpayable",
      "type": "function"
    },
    {
      "inputs": [
        {
          "internalType": "uint256",
          "name": "newVHbar",
          "type": "uint256"
        },
        {
          "internalType": "uint256",
          "name": "newVToken",
          "type": "uint256"
        },
        {
          "internalType": "uint16",
          "name": "newFeeBps",
          "type": "uint16"
        }
      ],
      "name": "setParams",
      "outputs": [],
      "stateMutability": "nonpayable",
      "type": "function"
    },
    {
      "inputs": [],
      "name": "token",
      "outputs": [
        {
          "internalType": "address",
          "name": "",
          "type": "address"
        }
      ],
      "stateMutability": "view",
      "type": "function"
    },
    {
      "inputs": [],
      "name": "vHbar",
      "outputs": [
        {
          "internalType": "uint256",
          "name": "",
          "type": "uint256"
        }
      ],
      "stateMutability": "view",
      "type": "function"
    },
    {
      "inputs": [],
      "name": "vToken",
      "outputs": [
        {
          "internalType": "uint256",
          "name": "",
          "type": "uint256"
        }
      ],
      "stateMutability": "view",
      "type": "function"
    },
    {
      "stateMutability": "payable",
      "type": "receive"
    }
  ],
  "bytecode": "0x60e0346100c757601f610adb38819003918201601f19168301916001600160401b038311848410176100cb578084926020946040528339810103126100c757516001600160a01b038116908181036100c75760805260a081905260c052600280546001600160a01b03191633179055680187e8a260c908000060035569d3c21bcecceda10000006004556005805461ffff1916600a1790556040516109fb90816100e082396080518160c9015260a0518161048b015260c05181818161026a01526105330152f35b5f80fd5b634e487b7160e01b5f52604160045260245ffdfe608060408181526004918236101561002e575b505050361561001f575f80fd5b61002a345f54610839565b5f55005b5f92833560e01c91826324a9d853146107a6575081633a3f161a146107865781636c197ff51461042257816375172a8b146104005781638da5cb5b146103d75781639bb1a99c146103b9578163e60da41d1461038f578163eda3df0d14610370578163f088d547146101be578163f8ff09cd146100fc575063fc0c546a146100b65780610012565b346100f857816003193601126100f857517f00000000000000000000000000000000000000000000000000000000000000006001600160a01b03168152602090f35b5080fd5b9050346101ba5760603660031901126101ba576044359161ffff83168093036101b6576002546001600160a01b03163303610186576103e8831161015457508035600355602435905561ffff19600554161760055580f35b906020606492519162461bcd60e51b8352820152600c60248201526b08c8a8abea89e9ebe90928e960a31b6044820152fd5b906020606492519162461bcd60e51b8352820152600a60248201526927a7262cafa7aba722a960b11b6044820152fd5b8380fd5b8280fd5b91905060203660031901126101ba576101d56107c6565b6001600160a01b03929083811615610344576101f234151561090d565b845490856001549361025c60035461024c6102458454926102398161023461271061022d61ffff61022681600554166107e0565b1634610808565b048c610839565b610839565b9089018a85010261081b565b9188610839565b610257818310610944565b610846565b96610268881515610944565b7f000000000000000000000000000000000000000000000000000000000000000016803b156101ba5786516340c10f1960e01b81526001600160a01b0390941691840191825260208201889052839182908490829060400103925af1801561033a57610322575b506102ea916020956102e386933490610839565b9055610839565b600155805134815282848201527fa9a40dec7a304e5915d11358b968c1e8d365992abf20f82285d1df1b30c8e24c823392a251908152f35b61032c869161097b565b610336575f6102cf565b8480fd5b84513d88823e3d90fd5b506020606492519162461bcd60e51b835282015260066024820152654241445f544f60d01b6044820152fd5b5050346100f857816003193601126100f8576020906003549051908152f35b8284346103b65760203660031901126103b657506103af60209235610853565b9051908152f35b80fd5b9050346101ba57826003193601126101ba5760209250549051908152f35b5050346100f857816003193601126100f85760025490516001600160a01b039091168152602090f35b8284346103b657806003193601126103b6575460015482519182526020820152f35b919050346101ba57806003193601126101ba5761043d6107c6565b926001600160a01b03928385169160248035929184156107595761046284151561090d565b8551976323b872dd60e01b895285848a015230838a01528460448a01526020988981606481868d7f0000000000000000000000000000000000000000000000000000000000000000165af190811561074f578391610719575b50156106e75781546001546105168661024c61050f6104fc6105038c610234612710600354975494859361ffff6104f581600554166107e0565b1690610808565b0489610839565b9086018488010261081b565b9185610839565b996105228b1515610944565b8a471015806106dd575b156106a7577f000000000000000000000000000000000000000000000000000000000000000016803b15610336578951632770a7eb60e21b815230818901908152602081018a90529091869183919082908490829060400103925af1801561069d579188918c9695949361067c575b50948495936105bc828796956105b48897968897610846565b600155610846565b83555af1903d15610676573d9067ffffffffffffffff8211610664578751916105ee601f8201601f19168c01846109a3565b8252893d92013e5b15610631575050827fbac9694ac0daa55169abd117086fe32c89401d9a3b15dd1d34e55e0aa4e47a9d9181519081528587820152a251908152f35b845162461bcd60e51b8152918201879052600e908201526d1210905497d4d1539117d190525360921b6044820152606490fd5b634e487b7160e01b8152604185528390fd5b506105f6565b936105bc87929394966106916105b49761097b565b9694939250509361059b565b8a513d87823e3d90fd5b895162461bcd60e51b81528088018d90526011818801527024a729aaa32324a1a4a2a72a2fa42120a960791b6044820152606490fd5b508a83101561052c565b865162461bcd60e51b81528085018a9052600d818501526c1514905394d1915497d1905253609a1b6044820152606490fd5b90508981813d8311610748575b61073081836109a3565b810103126101ba575180151581036101ba575f6104bb565b503d610726565b88513d85823e3d90fd5b855162461bcd60e51b8152602081850152600881840152674241445f46524f4d60c01b6044820152606490fd5b8284346103b65760203660031901126103b657506103af602092356108c3565b8490346100f857816003193601126100f85760209061ffff600554168152f35b600435906001600160a01b03821682036107dc57565b5f80fd5b9061ffff809216612710039182116107f457565b634e487b7160e01b5f52601160045260245ffd5b818102929181159184041417156107f457565b8115610825570490565b634e487b7160e01b5f52601260045260245ffd5b919082018092116107f457565b919082039182116107f457565b80156108be576108a35f549161089d60015493600354906108928261023461271061088b6004549861ffff6104f581600554166107e0565b0484610839565b91018584010261081b565b92610839565b90818110156108b8576108b591610846565b90565b50505f90565b505f90565b80156108be576108a35f549161089d6001546108fb6109026003549461023461271060045494859361ffff6104f581600554166107e0565b0485610839565b91018386010261081b565b1561091457565b60405162461bcd60e51b81526020600482015260086024820152671393d7d25394155560c21b6044820152606490fd5b1561094b57565b60405162461bcd60e51b815260206004820152600860248201526716915493d7d3d55560c21b6044820152606490fd5b67ffffffffffffffff811161098f57604052565b634e487b7160e01b5f52604160045260245ffd5b90601f8019910116810190811067ffffffffffffffff82111761098f5760405256fea2646970667358221220cb36ed9b9a9d45f9d5b7e89fffad9b598e27d883a1a00cd1cc8090a2a457fc6664736f6c63430008140033",
  "linkReferences": {},
  "deployedLinkReferences": {},
  "immutableReferences": {
    "241": [
      {
        "length": 32,
        "start": 201
      }
    ],
    "244": [
      {
        "length": 32,
        "start": 1163
      }
    ],
    "247": [
      {
        "length": 32,
        "start": 618
      },
      {
        "length": 32,
        "start": 1331
      }
    ]
  },
  "inputSourceName": "project/contracts/BondingCurvePool.sol",
  "buildInfoId": "solc-0_8_20-f575d21ee1c2192970551839107b89b5061e4b76"
}