{
  "_format": "hh3-artifact-1",
  "contractName": "LaunchPadToken",
  "sourceName": "contracts/LaunchPadToken.sol",
  "abi": [
    {
      "inputs": [
        {
          "internalType": "string",
          "name": "name_",
          "type": "string"
        },
        {
          "internalType": "string",
          "name": "symbol_",
          "type": "string"
        },
        {
          "internalType": "address",
          "name": "initialMinter",
          "type": "address"
        }
      ],
      "stateMutability": "nonpayable",
      "type": "constructor"
    },
    {
      "anonymous": false,
      "inputs": [
        {
          "indexed": true,
          "internalType": "address",
          "name": "owner",
          "type": "address"
        },
        {
          "indexed": true,
          "internalType": "address",
          "name": "spender",
          "type": "address"
        },
        {
          "indexed": false,
          "internalType": "uint256",
          "name": "value",
          "type": "uint256"
        }
      ],
      "name": "Approval",
      "type": "event"
    },
    {
      "anonymous": false,
      "inputs": [
        {
          "indexed": true,
          "internalType": "address",
          "name": "from",
          "type": "address"
        },
        {
          "indexed": true,
          "internalType": "address",
          "name": "to",
          "type": "address"
        },
        {
          "indexed": false,
          "internalType": "uint256",
          "name": "value",
          "type": "uint256"
        }
      ],
      "name": "Transfer",
      "type": "event"
    },
    {
      "inputs": [
        {
          "internalType": "address",
          "name": "owner_",
          "type": "address"
        },
        {
          "internalType": "address",
          "name": "spender",
          "type": "address"
        }
      ],
      "name": "allowance",
      "outputs": [
        {
          "internalType": "uint256",
          "name": "",
          "type": "uint256"
        }
      ],
      "stateMutability": "view",
      "type": "function"
    },
    {
      "inputs": [
        {
          "internalType": "address",
          "name": "spender",
          "type": "address"
        },
        {
          "internalType": "uint256",
          "name": "amount",
          "type": "uint256"
        }
      ],
      "name": "approve",
      "outputs": [
        {
          "internalType": "bool",
          "name": "",
          "type": "bool"
        }
      ],
      "stateMutability": "nonpayable",
      "type": "function"
    },
    {
      "inputs": [
        {
          "internalType": "address",
          "name": "account",
          "type": "address"
        }
      ],
      "name": "balanceOf",
      "outputs": [
        {
          "internalType": "uint256",
          "name": "",
          "type": "uint256"
        }
      ],
      "stateMutability": "view",
      "type": "function"
    },
    {
      "inputs": [
        {
          "internalType": "address",
          "name": "from",
          "type": "address"
        },
        {
          "internalType": "uint256",
          "name": "amount",
          "type": "uint256"
        }
      ],
      "name": "burn",
      "outputs": [],
      "stateMutability": "nonpayable",
      "type": "function"
    },
    {
      "inputs": [],
      "name": "decimals",
      "outputs": [
        {
          "internalType": "uint8",
          "name": "",
          "type": "uint8"
        }
      ],
      "stateMutability": "pure",
      "type": "function"
    },
    {
      "inputs": [
        {
          "internalType": "address",
          "name": "to",
          "type": "address"
        },
        {
          "internalType": "uint256",
          "name": "amount",
          "type": "uint256"
        }
      ],
      "name": "mint",
      "outputs": [],
      "stateMutability": "nonpayable",
      "type": "function"
    },
    {
      "inputs": [],
      "name": "minter",
      "outputs": [
        {
          "internalType": "address",
          "name": "",
          "type": "address"
        }
      ],
      "stateMutability": "view",
      "type": "function"
    },
    {
      "inputs": [],
      "name": "name",
      "outputs": [
        {
          "internalType": "string",
          "name": "",
          "type": "string"
        }
      ],
      "stateMutability": "view",
      "type": "function"
    },
    {
      "inputs": [],
      "name": "owner",
      "outputs": [
        {
          "internalType": "address",
          "name": "",
          "type": "address"
        }
      ],
      "stateMutability": "view",
      "type": "function"
    },
    {
      "inputs": [
        {
          "internalType": "address",
          "name": "newMinter",
          "type": "address"
        }
      ],
      "name": "setMinter",
      "outputs": [],
      "stateMutability": "nonpayable",
      "type": "function"
    },
    {
      "inputs": [],
      "name": "symbol",
      "outputs": [
        {
          "internalType": "string",
          "name": "",
          "type": "string"
        }
      ],
      "stateMutability": "view",
      "type": "function"
    },
    {
      "inputs": [],
      "name": "totalSupply",
      "outputs": [
        {
          "internalType": "uint256",
          "name": "",
          "type": "uint256"
        }
      ],
      "stateMutability": "view",
      "type": "function"
    },
    {
      "inputs": [
        {
          "internalType": "address",
          "name": "to",
          "type": "address"
        },
        {
          "internalType": "uint256",
          "name": "amount",
          "type": "uint256"
        }
      ],
      "name": "transfer",
      "outputs": [
        {
          "internalType": "bool",
          "name": "",
          "type": "bool"
        }
      ],
      "stateMutability": "nonpayable",
      "type": "function"
    },
    {
      "inputs": [
        {
          "internalType": "address",
          "name": "from",
          "type": "address"
        },
        {
          "internalType": "address",
          "name": "to",
          "type": "address"
        },
        {
          "internalType": "uint256",
          "name": "amount",
          "type": "uint256"
        }
      ],
      "name": "transferFrom",
      "outputs": [
        {
          "internalType": "bool",
          "name": "",
          "type": "bool"
        }
      ],
      "stateMutability": "nonpayable",
      "type": "function"
    }
  ],
  "bytecode": "0x608060405234620003495762000d1b803803806200001d816200034d565b928339810190606081830312620003495780516001600160401b03908181116200034957836200004f91840162000373565b906020938484015182811162000349576040916200006f91860162000373565b9301516001600160a01b0381169390849003620003495782519082821162000335575f8054926001958685811c951680156200032a575b8986101462000316578190601f95868111620002c3575b5089908683116001146200026057849262000254575b50505f19600383901b1c191690861b1781555b8151938411620002405784548581811c9116801562000235575b888210146200022157838111620001d9575b5086928411600114620001745783949596509262000168575b50505f19600383901b1c191690821b1790555b60018060a01b03193381600554161760055560065416176006556040516109379081620003e48239f35b015190505f806200012b565b9190601f1984169685845280842093905b888210620001c15750508385969710620001a8575b505050811b0190556200013e565b01515f1960f88460031b161c191690555f80806200019a565b80878596829496860151815501950193019062000185565b8582528782208480870160051c8201928a881062000217575b0160051c019086905b8281106200020b57505062000112565b838155018690620001fb565b92508192620001f2565b634e487b7160e01b82526022600452602482fd5b90607f169062000100565b634e487b7160e01b81526041600452602490fd5b015190505f80620000d3565b8480528a85208994509190601f198416865b8d828210620002ac575050841162000293575b505050811b018155620000e6565b01515f1960f88460031b161c191690555f808062000285565b8385015186558c9790950194938401930162000272565b9091508380528984208680850160051c8201928c86106200030c575b918a91869594930160051c01915b828110620002fd575050620000bd565b8681558594508a9101620002ed565b92508192620002df565b634e487b7160e01b83526022600452602483fd5b94607f1694620000a6565b634e487b7160e01b5f52604160045260245ffd5b5f80fd5b6040519190601f01601f191682016001600160401b038111838210176200033557604052565b919080601f84011215620003495782516001600160401b0381116200033557602090620003a9601f8201601f191683016200034d565b9281845282828701011162000349575f5b818110620003cf5750825f9394955001015290565b8581018301518482018401528201620003ba56fe60806040818152600480361015610014575f80fd5b5f92833560e01c90816306fdde03146105b857508063075461721461058f578063095ea7b31461056557806318160ddd1461054657806323b872dd146104a1578063313ce5671461048557806340c10f19146103ef57806370a08231146103b75780638da5cb5b1461038e57806395d89b411461026d5780639dc29fac146101ba578063a9059cbb14610185578063dd62ed3e1461013d5763fca3b5aa146100ba575f80fd5b34610139576020366003190112610139576100d36106f2565b6005546001600160a01b03939192919084163303610109575050166bffffffffffffffffffffffff60a01b600654161760065580f35b906020606492519162461bcd60e51b8352820152600a60248201526927a7262cafa7aba722a960b11b6044820152fd5b8280fd5b5034610139578160031936011261013957602092829161015b6106f2565b61016361070c565b6001600160a01b03918216845291865283832091168252845220549051908152f35b5050346101b657806003193601126101b6576020906101af6101a56106f2565b60243590336107f2565b5160018152f35b5080fd5b509190346101b657806003193601126101b6576101d56106f2565b600654602435916001600160a01b03916101f29083163314610722565b16918284526003602052818185205461020d82821015610792565b8486526003602052038185205560025482810390811161025a578493927fddf252ad1be2c89b69c2b068fc378daa952ba7f163c4a11628f55a4df523b3ef9260209260025551908152a380f35b634e487b7160e01b855260118652602485fd5b509190346101b657816003193601126101b65780519082600180549081811c90808316928315610384575b6020938484108114610371578388529081156103555750600114610300575b505050829003601f01601f191682019267ffffffffffffffff8411838510176102ed57508291826102e99252826106ab565b0390f35b634e487b7160e01b815260418552602490fd5b8087529192508591837fb10e2d527612073b26eecdfd717e6a320cf44b4afac2b0732d9fcbe2b7fa0cf65b83851061034157505050508301015f80806102b7565b80548886018301529301928490820161032b565b60ff1916878501525050151560051b84010190505f80806102b7565b634e487b7160e01b895260228a52602489fd5b91607f1691610298565b5050346101b657816003193601126101b65760055490516001600160a01b039091168152602090f35b5050346101b65760203660031901126101b65760209181906001600160a01b036103df6106f2565b1681526003845220549051908152f35b5050346101b657806003193601126101b657817fddf252ad1be2c89b69c2b068fc378daa952ba7f163c4a11628f55a4df523b3ef602061042d6106f2565b600654602435916001600160a01b039161044a9083163314610722565b169461045786151561075c565b610463826002546107d1565b6002558585526003835280852061047b8382546107d1565b905551908152a380f35b5050346101b657816003193601126101b6576020905160128152f35b508290346101b65760603660031901126101b6576104bd6106f2565b6104c561070c565b6001600160a01b0382168452602083815285852033865290529284902054604435939284821061050a576020866101af8787876105058389033383610873565b6107f2565b606490602087519162461bcd60e51b83528201526016602482015275494e53554646494349454e545f414c4c4f57414e434560501b6044820152fd5b5050346101b657816003193601126101b6576020906002549051908152f35b5050346101b657806003193601126101b6576020906101af6105856106f2565b6024359033610873565b5050346101b657816003193601126101b65760065490516001600160a01b039091168152602090f35b8491508334610139578260031936011261013957828354600181811c908083169283156106a1575b602093848410811461037157838852908115610685575060011461063057505050829003601f01601f191682019267ffffffffffffffff8411838510176102ed57508291826102e99252826106ab565b8680529192508591837f290decd9548b62a8d60345a988386fc84ba6bc95484008f6362f93160ef3e5635b83851061067157505050508301018580806102b7565b80548886018301529301928490820161065b565b60ff1916878501525050151560051b84010190508580806102b7565b91607f16916105e0565b602080825282518183018190529093925f5b8281106106de57505060409293505f838284010152601f8019910116010190565b8181018601518482016040015285016106bd565b600435906001600160a01b038216820361070857565b5f80fd5b602435906001600160a01b038216820361070857565b1561072957565b60405162461bcd60e51b815260206004820152600b60248201526a27a7262cafa6a4a72a22a960a91b6044820152606490fd5b1561076357565b60405162461bcd60e51b81526020600482015260076024820152665a45524f5f544f60c81b6044820152606490fd5b1561079957565b60405162461bcd60e51b815260206004820152601060248201526f125394d551919250d251539517d0905360821b6044820152606490fd5b919082018092116107de57565b634e487b7160e01b5f52601160045260245ffd5b6001600160a01b0391821692917fddf252ad1be2c89b69c2b068fc378daa952ba7f163c4a11628f55a4df523b3ef916020919061083086151561075c565b169260405f85815260038452828282205461084d82821015610792565b878352600386520382822055868152206108688282546107d1565b9055604051908152a3565b6001600160a01b0391821692919083156108cd577f8c5be1e5ebec7d5bd14f71427d1e84f3dd0314c0f7b2291e5b200ac8c7c3b925916020911692835f526004825260405f20855f5282528060405f2055604051908152a3565b60405162461bcd60e51b815260206004820152600c60248201526b2d22a927afa9a822a72222a960a11b6044820152606490fdfea2646970667358221220fb5ee267b74061fe4868b9255f8354e45faf56549338491f7864919d73f87d2664736f6c63430008140033",
  "linkReferences": {},
  "deployedLinkReferences": {},
  "immutableReferences": {},
  "inputSourceName": "project/contracts/LaunchPadToken.sol",
  "buildInfoId": "solc-0_8_20-7c6ba6b5760947f9da86cecd5021ae0558bd8546"
}